:100000000C94B6010C94D3010C94D3010C94D3013D
:100010000C94D3010C94D3010C94D3010C94D30110
:100020000C94D3010C94D3010C949B1E0C946F1F61
:100030000C94BB190C94D3010C94D3010C94D301F0
:100040000C94D3010C94D3010C94D3010C94D301E0
:100050000C94D3010C94421A0C94D3010C94D30148
:100060000C94D3010C94D3010C94D3010C94D301C0
:100070000C94D3010C94D3010C94D3010C94D301B0
:100080000C94D3010C94D3010C94D3010C94D301A0
:100090000C94D3010C94D3010C94D3010C94D30190
:1000A0000C94D3010C94D3010C94D30135001E00A1
:1000B0001F00200021002200AA00A9002300240024
:1000C0002500260027002D002B0014001A00080030
:1000D00015001700BC00BB001C0018000C0012002B
:1000E00013002F00215204001600070009000A0027
:1000F000000000000B000D000E000F003300340064
:10010000E1001D001B00060019000500AD00AE0057
:10011000110010003600370038003000E000E30026
:10012000E20021522A0000000000000000004C0004
:100130002152290031002E000000E10021522C0044
:10014000E2000000E000E4000000E6002800215288
:10015000E500000001003A003B003C003D003E008D
:10016000037C01003F004000410042004300440086
:1001700001001E021F022F023002310201000100A5
:100180004A004E004B004D000100450001002002D6
:100190002102260227023500000000005000510015
:1001A00052004F00010001000100220223022F0033
:1001B00030002E00010001000100010001000100DB
:1001C0000100010001000100010001000100000028
:1001D000000000000000010001000100010001001A
:1001E0000000010001004E0001004A000100010072
:1001F0004D0001004B00010001000000120345000A
:10020000720067006F0064006F006E006500000000
:1002100012034B002E0054002E0045002E00430018
:100220002E0000000403090409023B00020100A0A3
:10023000FA09040000010301010009211101000174
:1002400022400007058103080001090401000103A1
:1002500000000009211101000122B60007058203F8
:1002600020000112010002000000080912282301E9
:10027000000102000105010902A10185020901A195
:100280000005091901290815002501950875018146
:10029000020501093009311581257F950275088114
:1002A0000609381581257F950175088106050C0A18
:1002B00038021581257F950175088106C0C00501AA
:1002C0000980A101850319012AB700150126B7008D
:1002D000950175108100C0050C0901A10185041963
:1002E000012AA002150126A002950175108100C007
:1002F00005010906A1018506050719E029E7150092
:1003000025019508750181020507190029EF1500DF
:10031000250195F07501810205081901290595054A
:1003200075019102950175039101C005010906A1AE
:1003300001050719E029E7150025019508750181D8
:10034000029501750881010507190029FF1500268E
:10035000FF00950675088100050819012905950516
:1003600075019102950175039101C00011241FBE12
:10037000CFEFDAE0DEBFCDBF11E0A0E0B1E0E8E210
:10038000F4E402C005900D92A638B107D9F722E037
:10039000A6E8B1E001C01D92AE3BB207E1F70E94B2
:1003A0008B120C94D3210C94000080918801811150
:1003B0000EC00E94CA162FEF83ED90E321508040BB
:1003C0009040E1F700C0000081E08093880108952B
:1003D000A1E0B0E0EEEEF1E00C9450214983F82E5C
:1003E000FF0C81E09DE0E92E611103C080E02CE06C
:1003F000E22E04E610E021E030E0AE014F5F5F4FF7
:10040000682F8F2D0E94B017892B61F421E030E016
:10041000AE014F5F5F4F6E2D8F2D0E94B01721E010
:10042000892B09F020E0822F2196E6E00C946C21C4
:100430000F931F93880F61110FC062E104E610E073
:1004400021E030E00E94D71721E0892B09F020E05D
:10045000822F1F910F91089563E1F0CF80918B015E
:1004600081110CC04FEF61E080E20E94E80191E051
:10047000892790918B01980F90938B010895CF93CA
:100480004FEF60E080E20E94E801C1E08C2790918C
:100490008B01980F90938B014FEF61E080E20E94F7
:1004A000E8018C27C0918B01C80FC0938B01CF91BD
:1004B000089580E20E94D5012198299822982A98CF
:1004C00084988C9885988D9886988E9887988F9820
:1004D00029982A988C988D988E988F980E942E0231
:1004E0006E98769A52985A9A53985B9A54985C9A56
:1004F00057985F9A3E98469A24982C9A0E943F02F9
:100500000895A1E0B0E0E7E8F2E00C9444218C010A
:1005100080918B01882371F08091890190918A01EB
:100520000196811520E2920708F0A6C090938A01F7
:10053000809389014801512C412C00E0142DF401D5
:10054000219031904F01129212925F01133009F401
:10055000ACC008F09CC0113009F4A1C0123009F4FD
:10056000A1C0849A8C9880918B0192012F5F3F4F9C
:100570002901882309F49FC08FE891E00197F1F7E2
:1005800000C0000080918B01712C612C81111FC073
:100590009FEF9983AE014F5F5F4F60E080E20E9462
:1005A000180291E0892790918B01980F90938B010D
:1005B000898180950E94EE04982F96959C77837090
:1005C000892B782E7594682E6794662467944B99CE
:1005D00085C080E4C82ED12C4A9983C0A0E2B0E047
:1005E0004C9982C0E0E1F0E0369981C068E070E0AB
:1005F0004F9980C044E050E066997FC022E030E02F
:1006000083B182958F7091E0892780FBEE24E0F81A
:10061000F12CC701862997298C299D298A2B9B2B90
:100620008E2B9F2B682B792B462B572B242B352B6E
:10063000F50131832083133009F473C008F060C0E2
:10064000113009F466C0123009F467C084988C98A0
:100650008C9881E0F501208131812215330509F460
:1006600080E0082BF6E04F16510409F067CF802F89
:100670002196E2E10C94602110928A011092890186
:1006800010928B010E942E020E943F0253CF143021
:1006900079F0153009F065CF229A2A9864CF859AAF
:1006A0008D9861CF869A8E985ECF879A8F985BCF10
:1006B000219A299858CF41E050E001C0440F2A9573
:1006C000EAF7409561E080E20E94E80191E0892725
:1006D00090918B01980F90938B0154CFD12CC12C0A
:1006E0007BCFB0E0A0E07CCFF0E0E0E07DCF70E039
:1006F00060E07ECF50E040E07FCF30E020E080CF70
:10070000143099F0153009F0A1CF22982A982A9830
:10071000A0CF85988D988D989CCF86988E988E982E
:1007200098CF87988F988F9894CF21982998299857
:1007300090CF259A2D980895269A2E980895239A59
:100740002B980895559A5D9A08950E9499030E94E6
:100750009C030E949F030E94A203559A5D982FEF6D
:1007600080E792E0215080409040E1F700C0000017
:10077000259A2D9A2FEF80E792E0215080409040FB
:10078000E1F700C00000269A2E9A2FEF80E792E052
:10079000215080409040E1F700C00000239A2B9A3E
:1007A0002FEF80E792E0215080409040E1F700C0B9
:1007B00000000E9499032FEF80E792E021508040D3
:1007C0009040E1F700C000000E949C032FEF80E7FB
:1007D00092E0215080409040E1F700C000000E946C
:1007E0009F032FEF80E792E0215080409040E1F797
:1007F00000C000000E94A2030E9499030E949C0373
:100800000E949F030E94A2030E94170F0895823046
:10081000B8F46630A8F44E3098F450E09EE0699F3A
:10082000400D511D1124FA0194E5899FE00DF11D41
:100830001124EE0FFF1FE455FF4F85919491089509
:1008400081E090E008950E940704089581E00895F2
:1008500081E008950E942804089508950E942D04BF
:100860000895A5E0B0E0E7E3F4E00C945321498358
:100870005A833091910189819A81311119C066237F
:1008800099F0222389F00E94FF09182F682F89818F
:100890009A810E94DB0969817A81812F0E94D1109F
:1008A0002596E3E00C946F210E94ED09182FF3CFF9
:1008B0000E94FF0969817A81F1CFFC01262F4081D6
:1008C00051816281738184810E943104089581E0A5
:1008D0000895CF93DF93EC0160E00E945D04BE01B8
:1008E0000E942E04DF91CF91089508950E94AA08D6
:1008F0000E9475042FEF84E39CE0215080409040DB
:10090000E1F700C0000008950E9476040E94661A74
:1009100008950E9476040E94771A08950F931F93FA
:10092000CF93DF938C0161E00E945D04EC01B8017C
:100930000E942A04811106C080E0DF91CF911F91AF
:100940000F910895B801CE010E9486168823A1F365
:10095000B801CE010E941C15882371F3B801CE01A5
:100960000E94F815882341F3F8018281882361F001
:10097000C330FCE7DF07E9F058F4C115ECE7DE0708
:10098000A9F0C130DC47B9F0C8010E942604D5CFD8
:10099000CB358CE7D807A9F0CC35ECE7DE0771F052
:1009A000CA35DC4789F70E94300EEECF0E948404DE
:1009B000C3CF0E94380E0E948904BECF0E94260E2B
:1009C000E3CF0E94340EE0CF0E9497190E943805B1
:1009D00008950E943C050E949C190895829590E01C
:1009E0009C01220F331F220F331F2C7C9595879576
:1009F000959587958373282B30E0C901880F991F3F
:100A00008A7A359527952575822B0895089581E07A
:100A1000089580FF08C02D9A81FF07C02E9A82FF9B
:100A200006C02B9A08952D98F7CF2E98F8CF2B98C3
:100A30000895CF93DF93D82F0E940705C82F8823EE
:100A400019F08D2F0E9409058C2FDF91CF91089509
:100A5000259A2D98269A2E98239A2B980895CF930D
:100A6000C82F0E9406058C2F0E941905CF9108956A
:100A700080E00E942F0508950E942A180E942F05E9
:100A80000895CF930E942A18C82F80918C018C174B
:100A900079F0C0938C010E94271A60938D017093A6
:100AA0008E0180938F01909390018C2F0E942F05CF
:100AB000CF910895ABE0B0E0E0E6F5E00C9454216E
:100AC0004F83588769877A878B8761110E94710DE0
:100AD0001E821D8285E0FE013796DE01119601908F
:100AE0000D928A95E1F78C819D81892B61F4498172
:100AF0005A816B817C818D819E810E94990C2B96FD
:100B0000E2E00C94702189819A8189238F3F79F3E7
:100B1000CE0101960E9467048111E9CFF0CFFC015C
:100B2000808191810E94310A0895662329F00E94F4
:100B30000F130E94E21308950E946913FACFCF9316
:100B4000C82F8823B9F08CEF8C0F813AA8F46C2F52
:100B500080910001909101010E94BD18882329F025
:100B60008C2F0E94310D0E94920D8C2F0E94290D16
:100B70000E94920DCF91089580E28C0F883048F446
:100B8000C77081E001C0880FCA95EAF70E94540D32
:100B9000EFCFEBE5EC0FE33040F4F0E0E75BFE4F26
:100BA000808190E00E945F18E5CFE8E5EC0FEB3123
:100BB00050F4F0E0EE0FFF1FED5EFE4F808191815B
:100BC0000E948418D7CF83E38C0F833198F661E0BD
:100BD0008C2F0E949505CECF882381F19CEF980F32
:100BE000913A28F40E94310D0E94920D089590E2EE
:100BF000980F983050F4877091E001C0990F8A9552
:100C0000EAF7892F0E945A0DEFCF9BE5980F93309A
:100C100028F490E080E00E945F18089598E5980F0E
:100C20009B3128F490E080E00E948418089593E3BB
:100C3000980F933118F460E00E94950508951F9372
:100C4000CF93DF93182FEB010E949F05209739F473
:100C5000812F0E94EC05DF91CF911F9108958FE9BC
:100C60009FE00197F1F700C000002197EFCF70E0FF
:100C700060E0893311F460E570E00E941F0608957A
:100C8000882321F00E94540D0E94920D089588231C
:100C900021F00E945A0D0E94920D0895B0E0A0E04C
:100CA000E4E5F6E00C944D216C01D62FC72FFC0132
:100CB0001281058102950F700E944A0DE82E88234B
:100CC000E9F0E12E1123D1F08C2F807F803451F098
:100CD00080E28D0F8830F8F0011104C08C2F807EE7
:100CE0008032C9F08091940282FF15C082E00E9498
:100CF000F50D0E944A0D91E0E82EE926BC2EB29433
:100D00009FE0B922FBE0FB15B8F1EB2DF0E0EB52D0
:100D1000FE4D0C943E21E12CF1CF0C2F0F70C07FC3
:100D200011F00295007F112399F0002359F080E221
:100D30008D0F883010F0D11107C0802F0E94540D04
:100D40000E94920D8D2F63C0802F0E94640DF8CFFA
:100D50008D2F0E94EC05002379F080E28D0F883002
:100D600010F0D11104C0802F0E945A0D03C0802FB3
:100D70000E946A0D0E94920D2B2D2850330B2430B7
:100D8000310520F40E942A180E942F05EE2089F0D8
:100D90000E94460D80FD0DC0F60112820E94400D9A
:100DA0000E943909C6010E946A080E94400D0E94F3
:100DB0004909CDB7DEB7E9E00C9469212C2F2F70DB
:100DC000F22EC07FC03219F0F29480EFF822DD23BA
:100DD00081F0D13009F449C0112309F451C0002336
:100DE00009F448C0F601858180FFACCF8F70858300
:100DF00041C08091940282FD15C0112359F0FF205B
:100E000029F08F2D0E94540D0E94920D80E00E94C7
:100E10009F05B2CF80E00E94EC05FF2009F4ACCF23
:100E20008F2DA2CF112381F0011106C00E94740DF5
:100E30008F290E944006A0CF0130C1F70E94740D97
:100E40008F290E947B0D98CF011106C00E94880D4A
:100E50008F2D0E94470690CF013009F48DCF8F2D42
:100E60000E9447060E94880D87CF112329F0063083
:100E700008F082CF8F2DDDCF053008F07DCFE8CF91
:100E8000002331F3D93349F4FFEF27EE33E0F1507B
:100E900020403040E1F700C000008D2F0E94EC059B
:100EA0006BCF8C2F86958695837069F0813009F021
:100EB00063CF8D2F9C2F9370111102C080E090E0C2
:100EC0000E94841859CF8D2F9C2F9370111102C04E
:100ED00080E090E00E945F184FCF612F8D2F0E941D
:100EE00095054ACF8C2F8370A1F5111145CF4D2F59
:100EF000429546954770440F440F2D2F2F7030E0D8
:100F0000042E02C0220F331F0A94E2F790E080E023
:100F1000D4FF09C08FE090E002C0880F991F4A9566
:100F2000E2F780959095C695C695C370822B932B5A
:100F3000C23049F058F4C13019F00E9409091CCFA1
:100F40000E94000919CF0E94120916CF0E94FD08C5
:100F500013CF8695112311F08C2F8170882309F40B
:100F60000BCF4D2F429546954770440F440F2D2FC0
:100F70002F7030E0042E02C0220F331F0A94E2F7D4
:100F800090E080E0D4FF09C08FE090E002C0880FBD
:100F9000991F4A95E2F780959095C695C695C370BE
:100FA000822B932BC23049F058F4C13019F00E94C3
:100FB0007409E2CE0E946B09DFCE0E947D09DCCE6F
:100FC0000E942109D9CECF70112329F08C2F0E94C5
:100FD00039098D2F2ECF8D2F0E9447068C2F0E940E
:100FE0004909CACED23F41F160F4D03FB9F0D13FB8
:100FF00081F0112309F446C00111A4CE8C2F8F710A
:101000001FC0D33F01F1D43FA1F78091940282FD2C
:1010100024C08C2F8F71112311F312C0112341F0C2
:10102000053008F0A9CE8C2F8F710E945B09A4CEE9
:10103000063008F0A1CEF7CF8C2F8F711111CFCFD2
:101040000E94390999CE112329F08C2F8F710E94AB
:101050002D0992CE0E9428098FCE112349F0CF711D
:101060008C2F0E94390963E08C2F0E94D70D84CE0B
:1010700081E00E94F50D023008F47ECE82E00E94ED
:10108000F50D7ACE002359F0D93309F006CF8FEF52
:1010900097EEE3E081509040E040E1F7FCCE8C2FEA
:1010A0008F719DCF0F931F93CF93DF93EC016881D6
:1010B00079818A810E943C0A8C010E9486090E94E3
:1010C000FC08B801CE010E944E06DF91CF911F911E
:1010D0000F910895CF93DF93EC018B819C81892B35
:1010E00029F08881998189238F3F51F4DF91CF9135
:1010F0000895CE010E945208CE010E946904F6CFE5
:10110000CE010E948E048111F4CF0E944A0D8823E3
:1011100069F38A81882351F38091940282FFE6CF9C
:1011200082E00E94F50DE2CF90E080E00E945F181F
:1011300090E080E00E9484180E94710D0E94920D40
:101140000E94FE130E94E21308950E94390D0E942E
:10115000940808950E94610D0E94A5080895929533
:101160009F70963091F058F4925F9F70923058F4CF
:10117000803F19F030F4883E30F481E008959A5FA2
:10118000F4CF843FD1F380E00895883EB0F3813FEF
:10119000D1F7F3CFFC0183819481892B29F08081E1
:1011A000918189238F3F11F480E00895808191819E
:1011B0000E94310A0E94AF080895A5E0B0E0E3EE76
:1011C000F8E00C9454212596E2E00C947021A6E0FE
:1011D000B0E0EDEEF8E00C9454212696E2E00C9499
:1011E000702108950E94F10808950E94F2089093DA
:1011F000C1018093C001089508950E94F5080895E3
:101200002091C0013091C101822B932B0E94F508DF
:1012100008952091C0013091C101822393230E943F
:10122000F50808952091C0013091C10182279327CC
:101230000E94F50808950E94F10808950E941B0974
:1012400008950E941E099093BF018093BE010895E6
:1012500090E080E00E942109089521E030E0A9019A
:1012600002C0440F551F8A95E2F7CA010E94210966
:10127000089521E030E002C0220F331F8A95E2F783
:101280008091BE019091BF01822B932B0E94210976
:10129000089521E030E002C0220F331F8A95E2F763
:1012A000209530958091BE019091BF0182239323B8
:1012B0000E942109089521E030E002C0220F331F6F
:1012C0008A95E2F78091BE019091BF018227932712
:1012D0000E94210908952091BE013091BF01822B07
:1012E000932B0E94210908952091BE013091BF01E6
:1012F000822393230E94210908952091BE013091F9
:10130000BF01822793270E94210908950895262F5F
:10131000277091E001C0990F2A95EAF723E07695AE
:1013200067952A95E1F7660F771F660F771FFA0119
:10133000E60FF71F50E040E0682F70E08191DF0179
:1013400011979B01042E02C0369527950A94E2F767
:10135000217021952827292328272C934F5F5F4F41
:101360004430510559F70895A82FA77023E09695AA
:1013700087952A95E1F7880F991F880F991FFB0120
:10138000E80FF91F50E040E080E0219130E00A2EA4
:1013900002C0369527950A94E2F721703327042E70
:1013A00001C0220F0A94EAF7822B4F5F5F4F44304F
:1013B000510559F70895262F963070F48E3060F459
:1013C000682F70E08EE0989F600D711D112442E936
:1013D00051E0822F0E9487090895292F963068F4E2
:1013E0008E3058F490E062E971E03EE0239F800D7A
:1013F000911D11240E94B409089580E00895B0E081
:10140000A0E0E5E0FAE00C944D217C010091BE01E2
:101410001091BF018091C0019091C101082B192B3F
:10142000CFE0D0E0CC24C394D12CBC2EC6010C2E2E
:1014300002C0880F991F0A94E2F780239123892B19
:1014400049F4219790F7B12C8B2DCDB7DEB7E9E0A9
:101450000C946921B7018C2F0E94DD10019789F34C
:10146000F3CFCF93DF93EC010E94FF09BE010E94EE
:10147000DD10DF91CF9108951F93CF93DF93EB01A0
:1014800090919101992339F0CB010E94310ADF91AB
:10149000CF911F910895882369F0CB010E94FF0925
:1014A000182F682FCE010E94DB09BE01812F0E94F8
:1014B000DD10EDCFCB010E94ED09182FF6CF1F9361
:1014C000CF93DF93C091C20116E08091C3018C13CA
:1014D00004C0DF91CF911F910895D0E01C9FF001CF
:1014E0001D9FF00D1124EC53FE4F4081518162810C
:1014F0007381848195810E94E7082196C770E5CFAA
:101500004091F4015091F5016091F6017091F7015D
:101510008091F8019091F9010E94E70808952091C7
:10152000C2019091C30156E0291302C080E00895E2
:1015300030E0529FF001539FF00D1124EC53FE4F09
:101540007181761306C07081781303C072817413A1
:1015500004C02F5F3F4F2770E7CF81E008951F93AE
:10156000CF93DF938091F901807F09F04BC0809188
:10157000F601882309F446C08091C201C091C301DD
:101580004091F4015091F5016091F7017091F801DB
:10159000D42FD52316E0C817A9F190E06115710585
:1015A000A9F1DF3F99F1189FF001199FF00D112467
:1015B000DF01AC53BE4F11962C911197251326C015
:1015C0002C91241323C012962C91129721111EC026
:1015D00013962D913C91261B370B283C3105B0F416
:1015E0008091F9018F7080618093F901E753FE4F7C
:1015F00080818F708061808384EF91E00E946A080F
:101600000E945F0ADF91CF911F9108950196877024
:10161000C2CFA1E1B0E0EFE0FBE00C944A218C01E5
:1016200085E0F801DE011D9601900D928A95E1F7A3
:10163000F801F28084EFA82E81E0B82E4091F701E6
:101640005091F8014115510509F45AC19091F401E6
:101650002091F501892F82238F3F09F451C1C08069
:10166000D18083809480E090F601B401641B750BF7
:10167000EE2009F4F6C08091F901382F307F683CE4
:10168000710508F0AFC031117AC0EF2C2D1116C0D2
:101690009C1114C0F11012C08F7080618093F90109
:1016A0000E94800AC5010E946A088091F901F80130
:1016B00085838E2D6196ECE00C9466218114910453
:1016C000C9F18C2D8D218F3FA9F181E08F2580FFFD
:1016D00005C04F2D6D2D8C2D0E948F0A8114910411
:1016E00059F18C2D8D218F3F39F181E08F25F82F15
:1016F000F170BF2E80FF39C04F2D6D2D8C2D0E94B3
:101700008F0AA82E811131C0CD86DE868D859E85FB
:101710000E94310A292F22952F70243078F49F706F
:101720002230A8F09923B9F0F8019581907F99F4BF
:10173000EA2CBFCF80E0CBCF80E0D9CF2A5F2F70DB
:10174000223068F0C8010E946A08AB2CF1CF9923BF
:1017500011F0882369F3805E883050F3F3CF803F27
:1017600038F3815F833070F7E3CFFF2009F4A1CF16
:101770008091F90181608093F901E12C9ACF2D11BC
:1017800005C09C1103C0FF2009F486C0C8010E9457
:10179000CA08882319F1FF2009F18091F9018032EC
:1017A00070F02091F4013091F50138872F8319866C
:1017B0009B868A868C87CE0107960E946A0886E0FF
:1017C000F801A4EFB1E001900D928A95E1F70E9433
:1017D000AF0A0E94800AEE24E3946BCFC8010E94F6
:1017E0006A08F9CF311114C0782D998A888AA60128
:1017F0006F2D89890E94DD0884EF91E00E946A08BC
:1018000086E0F50111928A95E9F70E94800AB5CF2A
:101810002D110EC09C110CC0F1100AC08583C801A7
:101820000E946A0886E0F50111928A95E9F741CF96
:10183000C8010E94CA08882389F2FF2079F28091AA
:10184000F901803208F4BBCF2091F4013091F50109
:101850003A8329831B829D828C828E83CE010196DE
:10186000ACCF683C710508F03DC0EF2CFF2009F4B7
:10187000B5CF2D1129C09C1127C08091F90180FDA1
:101880001AC0982F907FB9F08583903F31F0982F40
:10189000907F905F8F70892B8583C8010E946A08B2
:1018A00086E0F801A4EFB1E001900D928A95E1F78E
:1018B0000E94800AFECE86E0F801A4EFB1E001901C
:1018C0000D928A95E1F7F5CEC8010E94CA088111F0
:1018D00076CF8091F90181608093F901C8010E945F
:1018E0006A08E7CE782D998A888AA6016F2D8989A2
:1018F0000E94DD0886E0F50111928A95E9F7D8CFBC
:10190000FF2009F46BCFC8010E94CA08E82E882383
:1019100009F464CF86E0F801A4EFB1E001900D92E4
:101920008A95E1F784EF91E00E948F050E94AF0A4B
:10193000BFCFACE0B0E0EFE9FCE00C9453214F8363
:10194000588769877A878B879C87CE0107960E9484
:10195000090B8823B1F08A859B85892B39F04F814B
:101960005885842F85238F3F09F06CC016E0809145
:10197000C2019091C301891343C02C96E3E00C94FB
:101980006F2186E0FE013796DE01119601900D92DF
:101990008A95E1F78A859B85892B41F38F8198850C
:1019A00089238F3F19F32091C30130E0C9010196CB
:1019B000877099274091C2014817190671F40E9457
:1019C000AA081092C3011092C20186E0E4EFF1E090
:1019D000DF011D928A95E9F7C9CF96E0929FD00169
:1019E000939FB00D1124AC53BE4FFE013196019070
:1019F0000D929A95E1F78093C3010E945F0AB6CFDA
:101A0000819FC00111248C539E4F0E94090B882393
:101A100009F4B3CFE091C2011E9FF0011124EC53F1
:101A2000FE4F4081518162817381848195810E9442
:101A3000E7088091C20190E0019687709927809312
:101A4000C20195CF69857A858B859C850E94E708C0
:101A50008DCF682F80910001909101010E943D1966
:101A60000895682F80910001909101010E944B1907
:101A7000089580910001909101010E9459190895E3
:101A800080911A02859585958595089580911A0211
:101A90008770089590911A02977081E009F480E0B0
:101AA000089580913D02089590913D02892B809385
:101AB0003D020895809590913D02982390933D02B8
:101AC000089510923D02089590913C02892B8093D5
:101AD0003C020895809590913C02982390933C029B
:101AE000089510923C02089580911B020895089574
:101AF0000E94770D08959091940292FF08C09091F2
:101B00001B02981721F080931B020E94780D089504
:101B100080911B02882329F010921B0280E00E9412
:101B2000780D0895CF93DF93E0910001F0910101CA
:101B300080913D028083E0910001F091010180815C
:101B400090913C02892B808390911B02992381F014
:101B5000E0910001F09101018081892B80838091C7
:101B60000001909101010E94A91881110E94880D25
:101B7000C0910001D091010140E250E06AEF71E0B4
:101B8000CE010E947B21892B59F080E2FE01AAEF51
:101B9000B1E001900D928A95E1F7CE010E943718CD
:101BA000DF91CF91089508950E94D30D08959091EB
:101BB000940292FF11C098E0899F90011124622B3A
:101BC00060931A020E94390980911A0285958595C1
:101BD00085950E94D40D08950E94390908951092A8
:101BE0001A0280E00E94D40D089590911A02809507
:101BF000892380931A02282F277091F4282F082E0A
:101C0000000C330B9217130659F09091940292FF37
:101C100007C08595859585950E9449090E94EF0D1D
:101C200008959091940292FB222720F9281769F0D9
:101C300080FB92F990939402809193029091940288
:101C40000E94590E82E00E94F50D08958091940241
:101C500082FB882780F991E089270E94110E089560
:101C600081E00E94110E089580E00E94110E0895F7
:101C70006FEF7FEF90E080E00E94BD21089590E03B
:101C800080E00E94992121E0873E9E4F09F020E0EC
:101C9000822F089582E090E00E949121089583E0D0
:101CA00090E00E949121089584E090E00E949921A3
:101CB0000895BC0184E090E00E94BD210895AB012D
:101CC000BC018FE090E00E94B1210895AB01BC01FE
:101CD00083E190E00E94B121089560E070E0CB01C3
:101CE0000E94660E089560E070E0CB010E945F0ED6
:101CF0000E946D0E089567EE7EEF90E080E00E94F6
:101D0000BD2160E082E090E00E949F2160E083E0DE
:101D100090E00E949F211092C1011092C00160E0EA
:101D200074E184E090E00E94BD2160E086E090E0F4
:101D30000E949F216FEF87E090E00E949F2140E08A
:101D400050E0BA0188E090E00E94B12160E08DE0AF
:101D500090E00E949F2140E050E0BA0188E190E0CD
:101D60000E94B12160E087E190E00E949F2140E065
:101D700050E0BA018CE190E00E94B12170E060E097
:101D800080E290E00E94BD2140E050E0BA0188E18D
:101D900090E00E94B1210E94730E08950E947B0E74
:101DA0000895682F8EE090E00E949F210895A5E09D
:101DB000B0E0EDEDFEE00C9452210E941B1A8C0164
:101DC00080913E0290913F0280179107A1F08FEF22
:101DD00089838A831B820E941B1A8160782F9D83CE
:101DE0008C8349815A816B818D810E945A051093A1
:101DF0003F0200933E022596E4E00C946E210E947F
:101E0000271A60935002709351028093520290936C
:101E1000530260934C0270934D0280934E02909354
:101E20004F020895089508950E94130F089508958C
:101E300081E0089587EC91E10E9420180E94120F22
:101E40000E94140F08950E94180F08950E94230FF6
:101E50000895089508950E94290F0E942A0F089559
:101E60000E94E6110E94280508950E94121A0E94FD
:101E700016120E94300F0E94A5030895A5E0B0E05D
:101E8000E4E4FFE00C9449210E94180F81110AC07C
:101E90000E94D70E0E9420140E9441052596EDE075
:101EA0000C9465210E942A1220E4822E22E0922EB8
:101EB000640110E0F601E190F1906F01812F0E9422
:101EC0000C121F5F163009F449C0E816F90691F3A9
:101ED0008091540281FD0E9415120E94260F782ED7
:101EE00010E0812F0E940C127C01F401A190B190AE
:101EF0004F018A159B0561F100E0CC24C394D12CDD
:101F0000AE24BF24C5018C219D21892BC1F07720EF
:101F1000B1F009831A8321E0C7018C219D21892B0F
:101F200009F420E02B830E941B1A8160782F9D8387
:101F30008C8349815A816B818D810E945A050F5F84
:101F4000CC0CDD1C0E30F1F6F4013297F182E08208
:101F50001F5F163031F60E94FF0E9CCFE816F9067F
:101F600009F0B6CF95CF1F93CF93DF930E94E21075
:101F7000EC01C11580E5D807F0F5C11580E4D8075C
:101F800008F09CC0C03ED10520F5CD3CD10508F03D
:101F900082C0C83AD10578F4C53AD10508F073C0BB
:101FA000C130D10519F1209709F1C430D105F0F401
:101FB000D0E0C0E01BC0C33CD105D0F7C85AD0E088
:101FC000CC0FDD1FC45BDE4F0990D881C02DD464D7
:101FD0000DC0C11580E2D80708F0D1C0C11581E05D
:101FE000D80708F05AC0C83ED10510F7CE01DF91DE
:101FF000CF911F910895C03682E5D80718F5C034F7
:1020000082E5D80708F06BC0C03282E5D80708F037
:102010005FC0C11582E5D80708F497C02C2F26951C
:10202000269580E2289F900111248C2F8370C1E0B7
:10203000D0E002C0CC0FDD1F8A95E2F7C22BD32B74
:10204000DD68D4CFC03A82E5D80760F4C03882E5B5
:10205000D80708F459C0CF71D0E0DC2FCC27C46F6B
:10206000D06AC4CFC03C82E5D80708F462C0C03E45
:1020700082E5D80708F09CCFDC2FCC27CC27DF7176
:10208000C06FD06AB3CFC55AD0E0CE57DE4FC881FB
:10209000D0E0D064ABCFD065A9CF8D2F0E94841142
:1020A000182FCE0199270E94E210C12FD0E0DC2F1B
:1020B000CC27CC27DF71C82BD92B98CFCE019927FD
:1020C0000E94E210CC27DF70C82BD92BD06A8ECFAC
:1020D000CF71D0E0DC2FCC27C16FD06A87CF2C2FF7
:1020E00026952695277080E2289F900111248C2F39
:1020F0008370C1E0D0E002C0CC0FDD1F8A95E2F70B
:10210000C22BD32BDC6872CF2C2F269526952770F7
:1021100080E2289F900111248C2F8370C1E0D0E0D1
:1021200002C0CC0FDD1F8A95E2F7C22BD32BDA68F1
:102130005DCF8C2F8F710E948411C82FD0E0DC2FCF
:10214000CC27CC27DF71D06251CF8C2F8F710E94AA
:10215000841155E0D695C7955A95E1F7CF70D0E038
:10216000DC2FCC27282F30E084FF05C044E0220F6D
:10217000331F4A95E1F7C22BD32BD06937CF8D2F70
:102180008F710E948411182FCE0199270E94E210AE
:10219000C12FD0E0DC2FCC27CC27DF71C82BD92B67
:1021A000D2CF462F763030F46E3020F4672F0E9465
:1021B0002304089590E080E008950E94D1100E94C9
:1021C000B30F089582389105B9F1B0F481339105C8
:1021D00009F47DC048F48932910509F46DC08A3252
:1021E000910509F47BC008958533910509F45FC01A
:1021F0008933910509F10895833E9105D9F138F4A9
:10220000803E910529F1823E910579F10895863E3F
:102210009105D9F1873E910509F43EC0843E9105B0
:1022200041F52091940221FF24C08091930284FD06
:1022300019C087EE90E0089520919302237009F071
:102240005AC02091940223FF14C089E290E00895BF
:102250002091930220FD38C03091940230FF09C0D4
:1022600024FF43C090E080E008952091930222FD76
:10227000F7CF08952091930222FD3AC03091940245
:1022800030FD39C024FFF5CFEDCF2091930223FF1D
:10229000F0CF24FDE7CFCDCF2091930223FD2EC0B8
:1022A0003091940231FFEECF84EE90E008952091BA
:1022B000930225FFDECFC9CF2091930225FD21C0D7
:1022C0002091940223FFD5CF89E390E0D2CF2091D3
:1022D000930226FFCECF8AE290E0089520919302E8
:1022E00026FFC7CF81E390E0089583EE90E0089544
:1022F00082EE90E0089580EE90E0089586EE90E002
:10230000089585E390E008959091930292FF06C0AE
:10231000282F28712830F9F4877F846093FF06C046
:10232000282F28712831F1F4877E8461209194024E
:1023300020FF06C0382F38713830D9F4877F81608C
:1023400021FF06C0282F28712831D1F4877E8161B2
:1023500094FD877E0895282F24712430F9F68B7F11
:102360008860DCCF282F2471243101F78B7E8861AF
:10237000DDCF382F3171313019F78E7F8860E0CF93
:10238000282F2171213121F78E7E8861E1CF80E0F5
:1023900008950E94380E08950E942A122FEF86E7B2
:1023A00091E0215080409040E1F700C000000E9481
:1023B0002A1280E00E940C1280FF04C00E94C91102
:1023C0000E94661A08950E94CC1108950E943F0E43
:1023D000811102C00E94CE0E0E944A0E80935402C8
:1023E0000E94540E90939402809393020E94E311F2
:1023F0000E944F0E90E00E94FD088091BE019091D6
:10240000BF010E941E09089508950E9404120895B4
:1024100008950E9408120895E82FF0E0EE0FFF1FC4
:10242000EF55FD4F80819181089508950E945902D2
:10243000E5E9F2E0A1EAB2E0119211921D921D923B
:1024400082E0E13AF807C1F786E00E943D120E945F
:1024500005120895CF9385E992E00E948102282F0A
:1024600046E061EA72E085E992E00E943E12C82FE0
:102470000E9409128C2FCF9108950895CF92DF9278
:10248000EF92FF921F93CF93DF936C017B01C42FD8
:10249000222349F081E0809357020E941B1A9093F7
:1024A0005602809355021091570211110AC010E094
:1024B000812FDF91CF911F91FF90EF90DF90CF9010
:1024C000089580915502909156020E94331A059703
:1024D00070F3D0E0CC0FDD1FAE01B601C7010E9442
:1024E0007B21892B41F0AE01B601C7010E948821F2
:1024F00010925702DDCF10E0FBCF0E94EC1B0E9430
:10250000350F0E94F91B08950E94FE1B0E943E0F8A
:102510000E94181C08950E94B4190E94D21B0E94A8
:102520001A0F0E947D120E9484120E942B0FFBCF73
:1025300080915E0280FF0DC06091070170E0660F20
:10254000771F6038710570F56115710569F1862F87
:10255000089581FF07C06091070184E0689FB00182
:102560001124EFCF6091070182FD0AC080915D02C6
:102570008823A9F02091060160910701821710F0CD
:1025800088E0ECCF869FC001112433E0880F991FAB
:102590003A95E1F7622F70E00E942A21D2CF68E0DD
:1025A00070E0D5CF8FE7089581E0089580915E02B5
:1025B00080FF0CC06091030170E07595679575957B
:1025C00067956115710549F1862F089581FF06C051
:1025D0006091030170E075956795F3CF60910301F9
:1025E00082FD0BC090915C029923A1F060910201E1
:1025F00080910301961738F0682F70E060387105FC
:1026000000F38FE70895899FC001112470E00E94B4
:102610002A21F4CF61E070E0D7CF81E008958D3CAE
:1026200031F40E94981281958093620208958E3C45
:1026300019F40E949812F8CF8F3C31F40E9498123E
:102640008195809361020895803D19F40E9498124B
:10265000F8CF893D29F40E94D61280936302089531
:102660008A3D21F40E94D6128195F7CF8B3D31F43B
:102670000E94D61281958093640208958C3D19F4CE
:102680000E94D612F8CF9FE2980F983070F4815DC7
:10269000990B21E030E001C0220F8A95EAF7809182
:1026A0006002822B8093600208958D3D31F4809109
:1026B0005E02816080935E0208958E3D21F48091D8
:1026C0005E028260F7CF8F3DB9F780915E02846031
:1026D000F1CF409161028D3C59F48091620287FFF5
:1026E0000DC01092620241110BC010925D0208C031
:1026F0008E3C81F48091620218169CF3442381F091
:102700008091630290916402892B09F05AC0109263
:102710005C0208958F3C49F447FFF0CF10926102AC
:10272000809162028111ECCFE0CF803D19F4141644
:10273000ACF3E4CF90916302893D29F41916F4F6C5
:1027400010926302DBCF8A3D19F497FFD7CFF8CF01
:10275000909164028B3D29F497FFD0CF10926402D0
:10276000CDCF8C3D19F41916CCF3C8CF9FE2980F4A
:10277000983090F4815D990B21E030E0B90102C0FE
:10278000660F771F8A95E2F7CB01809590916002E2
:10279000892380936002B2CF8D3D31F480915E0237
:1027A0008E7F80935E02AACF8E3D21F480915E02DF
:1027B0008D7FF7CF8F3D09F0A1CF80915E028B7F97
:1027C000F0CF08950E941B1A9C01909161028091A4
:1027D0006202982B21F030935B0220935A02909171
:1027E000630280916402982B21F030935902209368
:1027F00058028FE592E00E945118089586E0EFE5B7
:10280000F2E0DF011D928A95E9F710925D021092C5
:102810005C0210925E020895FC01828181110EC05B
:10282000838181110BC08481811108C091E0858171
:10283000811101C090E0892F8170089581E0FCCF63
:10284000A6E0B0E0E6E2F4E10C94532186E0EFE587
:10285000F2E0DE01119601900D928A95E1F7109257
:1028600061021092620210926302109264028B81E4
:102870009C81892B89F080915A0290915B020E9481
:10288000331AAC0190915D029923C9F1809108013E
:102890008417150608F440C08D819E81892B91F024
:1028A00080915802909159020E94331AAC01909184
:1028B0005C02992309F471C0809104018417150604
:1028C00008F479C0BE016F5F7F4F8FE592E00E94F0
:1028D0006B19811105C08FE592E00E940C148111E3
:1028E0000E94E21386E0FE013196AFE5B2E001906E
:1028F0000D928A95E1F72696E3E00C946F212091E2
:1029000009018AE0289F900111242417350720F639
:102910009F5F90935D0202C09F3FD1F71B811123FF
:1029200059F00E9498129FEF11160CF491E0899FC4
:10293000802D1124809361021C81112359F00E9483
:1029400098129FEF11160CF491E0899F802D1124AD
:102950008093620230916102332309F49DCF20916C
:102960006202222309F498CF45EB3403C0011124FD
:10297000992359F09093610245EB240390011124AF
:10298000332339F03093620287CF81E08093610274
:10299000F3CF81E0809362027FCF209105018AE02E
:1029A000289F900111242417350708F08BCF9F5FD3
:1029B00090935C0202C09F3FD1F71D81112359F013
:1029C0000E94D6129FEF11160CF491E0899F802D82
:1029D0001124809363021E81112359F00E94D612A4
:1029E0009FEF11160CF491E0899F802D11248093A4
:1029F000640230916302332309F464CF20916402AE
:102A0000222309F45FCF45EB3403C001112499233D
:102A100059F09093630245EB240390011124332372
:102A200039F0309364024ECF81E080936302F3CF9C
:102A300081E08093640246CFCF93DF93EC01FB01EA
:102A40008281882309F4D2C09E0130572332310598
:102A500008F0B2C00E94540E9093940280939302A7
:102A6000FE01E150F047E232F10520F4EF51FE4D56
:102A70000C943E218091930281608093930293C0D5
:102A8000809194028860809394028DC0809193021B
:102A90008260F3CF809193028460EFCF80919302A4
:102AA0008860EBCF809194028160EDCF8091940299
:102AB0008260E9CF809193028061DFCF80919302A1
:102AC0008062DBCF809193028064D7CF0E94AA08F6
:102AD000809193028068D1CF809193028C60CDCF9A
:102AE000809194028360CFCF809193028E7FC5CF77
:102AF00080919402877FC7CF809193028D7FBDCF55
:102B0000809193028B7FB9CF80919302877FB5CF5D
:102B1000809194028E7FB7CF809194028D7FB3CF46
:102B2000809193028F7EA9CF809193028F7DA5CF54
:102B3000809193028F7BA1CF0E94AA08809193027B
:102B40008F779BCF80919302837F97CF8091940260
:102B50008C7F99CF8091930282FB992790F921E095
:102B6000922790FB82F990FB83F987CF80919402A2
:102B7000982F909591708E7F892B90FB81F983CF50
:102B800090919302892F8F7B96FF806476CF0E946D
:102B9000AA0890919302892F97FB87F980586DCFEF
:102BA00081E00E94D10E80919302909194020E9444
:102BB000590E0E94AA0880E0DF91CF91089580E02D
:102BC000F0CF90919302892F8F7E94FF806155CF33
:102BD00090919302892F8E7F90FF81604ECF9091CC
:102BE0009402892F877F93FF88604DCF81E0E4CFE7
:102BF000CF93DF93EB0186319C4711F50E94510D75
:102C00009A81992399F08A7A91E009F490E090935F
:102C10006502811109C089E20E94290D0E94920D6E
:102C200080E0DF91CF91089585E3F6CF8091650232
:102C3000811104C089E20E94310DF0CF85E3FBCF02
:102C400081E0EFCF0F931F93CF93DF93C42FD22F49
:102C5000FC0182818823C9F0409368020E941B1AFC
:102C6000909367028093660280E28C0F883040F474
:102C7000C77081E001C0880FCA95EAF70E9440063C
:102C8000DF91CF911F910F91089510916802141355
:102C900032C080916602909167020E94331A883C8C
:102CA000910548F5C0E2CD0F1D17B9F080E2810F04
:102CB000883040F4177081E001C0880F1A95EAF758
:102CC0000E944706C83048F481E09D2F977001C0EC
:102CD000880F9A95EAF70E944006802F0E943706D7
:102CE000C83070F6D77081E001C0880FDA95EAF736
:102CF0000E944706C5CF80E28C0F883008F6C77067
:102D000081E001C0880FCA95EAF7F2CF0F93DB018B
:102D100088519C4787309105A0F5FC01ED5FFD4D82
:102D20000C943E2106E221EE41EE6AE17CE7CD0102
:102D30000E94221680E00F91089507E225EE45EEED
:102D40006BE17CE7F4CF06E221EE40EE68E17CE740
:102D5000EECF07E225EE44EE69E17CE7E8CF06E23C
:102D600021EE42EE6CE17CE7E2CF07E225EE46EE93
:102D70006DE17CE7DCCF08E221E045EE6EE17CE727
:102D8000D6CF12968C91882319F010926802D3CF77
:102D900081E0D1CF1092B9008CE08093B800089503
:102DA000B0E0A0E0E6EDF6E10C944B21B82EEB018B
:102DB0000E941B1A6C01EE24E394F12CC431D1055E
:102DC00060F025E0E22EF12CCF3FDC0731F0CE01A0
:102DD00064E170E00E9416217B0184EAA82E94E849
:102DE000992E1092BC00A092BC000E941B1A8C016C
:102DF0008091BC0087FF0DC08091B900887F88302A
:102E0000F9F08091B900887F8031D1F00FEF1FEF8A
:102E100008C0C8010E94331AE816F90648F70EEFF9
:102E20001FEFCF3FDC07E9F2C6010E94331AC81733
:102E3000D907B8F6C801CDB7DEB7EBE00C9467212F
:102E4000B092BB009092BC000E941B1A8C01809132
:102E5000BC0087FF0AC08091B900887F883111F0DB
:102E60008034A1F610E000E0E5CFC8010E94331ADB
:102E7000E816F90660F7D3CF0F931F93CF93DF9334
:102E8000EB018093BB0084E88093BC000E941B1A76
:102E90008C018091BC0087FF11C02091B900287F70
:102EA00081E090E0283211F490E080E091958195E6
:102EB0009109DF91CF911F910F910895CF3FDC07CA
:102EC00041F3C8010E94331AC817D90710F78EEFD3
:102ED0009FEFEFCF0F931F93CF93DF93EC0184EC21
:102EE0008093BC000E941B1A8C018091BC0087FF5C
:102EF00008C08091BB0090E0DF91CF911F910F91AE
:102F00000895CF3FDC0789F3C8010E94331AC81720
:102F1000D90758F78EEF9FEFEFCF0F931F93CF9303
:102F2000DF93EC0184E88093BC000E941B1A8C01A3
:102F30008091BC0087FF08C08091BB0090E0DF91CA
:102F4000CF911F910F910895CF3FDC0789F3C801FE
:102F50000E94331AC817D90758F78EEF9FEFEFCFAB
:102F6000B0E0A0E0E6EBF7E10C944E21C62F6A0139
:102F70007901B8010E94D01697FD0CC0B8018C2FC2
:102F80000E943C17E601EC0CFD1CCE15DF0511F08C
:102F900097FF08C024E92093BC00CDB7DEB7E8E076
:102FA0000C946A21B80189910E943C17EECFB0E0E1
:102FB000A0E0EDEDF7E10C944E21F82EE62EEA01AB
:102FC0006901B8010E94D01697FD15C0B8018E2D79
:102FD0000E943C1797FD0FC0B8018F2D81600E94A1
:102FE000D016F12CE12C21E0C21AD108EC14FD041A
:102FF000E0F497FF0DC024E92093BC0018161906D1
:1030000014F490E080E0CDB7DEB7E8E00C946A21DC
:10301000C8010E946A1797FD04C0FE01EE0DFF1D56
:1030200080832FEFE21AF20AE1CF97FDE4CFC801C7
:103030000E948D1797FDDFCFCC0DDD1D8883DBCF80
:103040009093870180938601089590936E028093F8
:103050006D020895E0916D02F0916E02309729F0B3
:103060000190F081E02D0995089580E00895E091A8
:103070006D02F0916E02309799F020911201222397
:1030800059F02091930227FF07C0DC012C91119683
:103090002C93119726E02C930280F381E02D099563
:1030A0000895E0916D02F0916E02309739F022E0C0
:1030B000DC012C930480F581E02D09950895A3E0AF
:1030C000B0E0E5E6F8E10C94542120916B023091D8
:1030D0006C0228173907A1F090936C0280936B0261
:1030E000E0916D02F0916E02309751F023E0298358
:1030F0009B838A830680F781E02DCE010196099596
:103100002396E2E00C947021A3E0B0E0EAE8F8E155
:103110000C9454212091690230916A0228173907D2
:10312000A1F090936A0280936902E0916D02F091A0
:103130006E02309751F024E029839B838A830680B6
:10314000F781E02DCE01019609952396E2E00C94DB
:103150007021FC01329680911201882321F0809128
:1031600093029EE187FF96E080E0915008F4089575
:1031700021912223D1F38F5FF8CF662301F12091B3
:1031800012012223F1F02091930227FF1AC0462F4B
:103190004695469546954E3190F4677021E030E0B3
:1031A00002C0220F331F6A95E2F7840F911DFC01C4
:1031B000828190E02823392381E0232B69F480E089
:1031C0000895FC01329608962191261721F0E81700
:1031D000F907D1F7F4CF81E008959C01FC01329604
:1031E0009FEF80E04191461751F09F3F19F4411144
:1031F00001C0982F8F5F8630A9F79F3F09F408958B
:10320000290F311D97FD3A95F90162830895FC015C
:10321000329608962191261303C0DF0111971C9264
:10322000E817F907B9F70895E62FE695E695E695CC
:10323000EE3168F4E80FF92FF11D677021E030E0FE
:1032400001C0220F6A95EAF78281822B828308955A
:10325000E62FE695E695E695EE3170F4E80FF92F46
:10326000F11D677021E030E001C0220F6A95EAF796
:103270002095828128232283089520911201222300
:1032800039F02091930227FF03C00E94141908957A
:103290000E94ED18089520911201222339F0209107
:1032A000930227FF03C00E94281908950E9407195E
:1032B0000895FC01329680911201882351F080918B
:1032C000930287FF06C08EE1DF011D928A95E9F720
:1032D000089586E0F9CF46E050E00E947B2121E08E
:1032E000892B09F420E0822F089508950E94751912
:1032F0000895811106C081E080936F020E947619C3
:10330000089582E0F9CF83E080936F020E947619DE
:1033100008950E947919089581E080936F020E94B8
:10332000761908950E948C190895089508950E94B1
:1033300096190895089508950E9495190895CF93B8
:103340000E949A190E942A120E949B19C0E08C2F99
:103350000E940C12892B31F4CF5FC630C1F780E098
:10336000CF91089581E0FCCF85B7806885BF85B790
:10337000806885BF08951F921FB61F9211248F93F6
:103380009F93AF93BF9380917002811113C080917E
:10339000AD029091AE02A091AF02B091B002419601
:1033A000A11DB11D8093AD029093AE02A093AF0218
:1033B000B093B002BF91AF919F918F911F901FBEAC
:1033C0001F9018958091B502843031F10E94E40479
:1033D0001092700288E190E020E40FB6F894A8956E
:1033E000809360000FBE2093600083B7817F84606C
:1033F00083BF83B7816083BF7894889583B78E7FBE
:1034000083BF0FB6F894A89580916000886180937F
:103410006000109260000FBE08950E94AA080E94EA
:10342000E904089582E084BD93E095BD9AEF97BDCD
:1034300080936E0008952FB7F8948091AD0290911B
:10344000AE02A091AF02B091B0022FBF08952FB786
:10345000F8946091AD027091AE028091AF029091AC
:10346000B0022FBF08959C014FB7F8948091AD0230
:103470009091AE02A091AF02B091B0024FBF821BFB
:10348000930B089578941F921FB61F9211248F9367
:103490009F93AF93BF938091AD029091AE02A091A4
:1034A000AF02B091B0020196A11DB11D8093AD0293
:1034B0009093AE02A093AF02B093B002BF91AF91D0
:1034C0009F918F911F901FBE1F90189587E797E7D8
:1034D000909301088093000888E19AE00FB6F89471
:1034E000A895809360000FBE90936000FFCF88E1A5
:1034F0009AE00FB6F894A895809360000FBE909361
:103500006000FFCF8091910208959B01BA019091D4
:10351000B5029430E9F48F708093E9009FEF8091B9
:10352000E800915085FD06C085ED8A95F1F7000011
:103530009111F5CF8091E80085FF0AC050E040E08E
:10354000C9010E948F1C8091E8008E778093E8006B
:10355000089543E050E0BC0182E00E94851A08957E
:1035600046E050E0BC0182E00E94851A0895CF93A6
:10357000DF93EC0180911201811111C048E050E00D
:10358000BE0181E00E94851A80E2FE01A1E7B2E05F
:1035900001900D928A95E1F7DF91CF910895809186
:1035A000930287FF05C040E282E050E0BE01EACF0F
:1035B00048E081E0FACF8091B402811109C00E94F5
:1035C0001F1E0E947C1E8091E20084608093E200B6
:1035D00008951092B40208950E948C190895609184
:1035E000B10281E0611101C080E00E948319089559
:1035F0009091B50281E0943009F080E06091B102D1
:103600000E948919089542E061EC81E00E949B1DAF
:1036100042E261EC82E00E949B1D9091B50281E044
:10362000943009F080E06091B1020E947919089508
:103630008091B702833009F461C030F48130D1F158
:10364000823009F49EC008958A3009F48AC08B3014
:1036500009F46FC0893009F050C08091B602813200
:1036600009F04BC08091BA029091BB02029708F01A
:1036700044C08091E800877F8093E8008091E80053
:1036800082FF37C09091F3008091F200029731F4ED
:103690008091F100813011F0863021F48091F100A9
:1036A000809391028091E8008B778093E8000E94DC
:1036B000CF1D23C08091B602813AF9F48091E800D1
:1036C000877F8093E8008091BA029091BB02892B9A
:1036D00061F460E281E792E070E00E94DE1C80917C
:1036E000E8008B778093E800089560E090E080E048
:1036F000F3CF8091B5028111C1CF08958091B602B8
:10370000813AD9F78091BA029091BB02892BA9F72F
:103710008091E800877F8093E8008091E80080FF37
:10372000FCCF809112018093F1008091E8008E77A8
:10373000BCCF8091B602813201F78091BA0290919C
:10374000BB02892BD1F68091E800877F8093E80047
:103750000E94CF1D8091B802809312010E94AA0896
:1037600008958091B602813241F68091E800877F0A
:103770008093E8000E94CF1D8091B902809392024D
:1037800008958091B602813A09F0B7CF8091E800A0
:10379000877F8093E8008091E80080FFFCCF8091D4
:1037A0009202C1CF84B7877F84BF0FB6F894A895E3
:1037B00080916000886180936000109260000FBE6D
:1037C00080E890E00FB6F8948093610090936100D8
:1037D0000FBE0E94921908950E941F1E0E947C1E17
:1037E000E2EEF0E080818460808378940E94FB2088
:1037F00008958AE091E00E94251808958091B5020D
:10380000853031F48091B502853019F00E940D1A8F
:1038100008950E94E2198091B302882399F30E94CF
:103820009F19882379F30E94791C0E94AA08EACF85
:1038300008959A014091BC025091BD020E94211C42
:103840000895492F55274330510519F168F4413047
:10385000510509F444C04230510509F445C090E0D7
:1038600080E050E040E025C04132510549F142324C
:103870005105A9F780E490E04BE253E06115710532
:10388000C1F086EB90E045E752E06130710589F0C8
:10389000E6CF99278130910581F0009729F00297B2
:1038A000F1F6ECEFF1E002C0E4E2F2E0849190E0A6
:1038B000AF01F901518340830895E0E1F2E0F6CFD2
:1038C00089E090E04AE352E06115710591F389E0E7
:1038D00090E043E552E06130710559F3C0CF82E1D9
:1038E00090E043E652E0E5CF8BE390E048E252E01F
:1038F000E0CF80E189BD82E189BD09B400FEFDCF42
:103900008091D8008F7D8093D8008091E000826004
:103910008093E0008091E00081FDFCCF0895AF929C
:10392000BF92CF92DF92FF920F931F93CF93DF93BB
:103930006C01EB018A010E94EE1DF82E811123C05B
:103940000115110539F0F80180819181C81BD90B4F
:10395000C80ED91EB12CA12C2097A9F08091E800A7
:1039600085FD22C08091E8008E778093E8000115E4
:103970001105A1F0F80180819181A80EB91EB182D4
:10398000A08285E0F82E8F2DDF91CF911F910F91AE
:10399000FF90DF90CF90BF90AF9008950E94EE1DF2
:1039A0008823D1F2F82EEFCFF60181916F01809339
:1039B000F1002197FFEFAF1ABF0ACECFFC01809133
:1039C000BC029091BD0286179707A0F061157105A2
:1039D00029F49091E8009E779093E80090E06115BB
:1039E000710551F4911108C08091E80082FF34C044
:1039F00080E00895BC01F2CF8091B5028823C1F127
:103A00008530C1F18091E80083FD30C08091E800ED
:103A100082FDEACF8091E80080FFE1CF8091F30042
:103A20002091F200382F6115710519F02830310509
:103A300058F091E02830310509F090E02091E8003D
:103A40002E772093E800CBCF81918093F1006150D5
:103A500071092F5F3F4FE7CF8091B502882341F076
:103A6000853041F08091E80083FFBECF81E008956A
:103A700082E0089583E00895FC018091BC0290915A
:103A8000BD0286179707A0F06115710529F4809192
:103A9000E8008E778093E80090E06115710551F49D
:103AA000911108C08091E80082FF35C080E0089540
:103AB000BC01F2CF8091B5028823C9F18530C9F1EC
:103AC0008091E80083FD31C08091E80082FDEACF5B
:103AD0008091E80080FFE1CF8091F3002091F20017
:103AE000382F6115710519F02830310558F091E033
:103AF0002830310509F090E08091E8008E778093BE
:103B0000E800CBCF84918093F10031966150710928
:103B10002F5F3F4FE6CF8091B502882341F085307B
:103B200041F08091E80083FFBDCF81E0089582E0FD
:103B3000089583E00895982F973028F08F70809330
:103B4000E90081E008959093E900242F762F50E05A
:103B5000981731F07091EC002091ED005091F00039
:103B600021FD02C09F5FE8CF3091EB003E7F309394
:103B7000EB003091ED003D7F3093ED003091EB0094
:103B800031603093EB007093EC002093ED00509384
:103B9000F0002091EE0027FDE5CF80E008958091B0
:103BA000B60287FF13C08091E80082FF06C08091B3
:103BB000E8008B778093E80004C08091B502811102
:103BC000F2CF08958091B5028823D9F38091E8005F
:103BD00080FFF8CF8091E8008E77ECCF2091E40051
:103BE0003091E50095E6A9012091EC00822F8170CB
:103BF00020FF06C08091E80080FF06C080E00895A5
:103C00002091E80022FD1AC08091B502882389F036
:103C1000853089F08091EB0085FD0FC02091E40094
:103C20003091E50042175307F9F29150E1F684E034
:103C3000089582E0089583E0089581E008950E9448
:103C40008E1E0E94961EE0EEF0E0808181608083EF
:103C5000E8EDF0E080818F77808319BCA7EDB0E0BC
:103C60008C918E7F8C9380818F7E80831092B402A2
:103C700008950F931F93CF93DF930E948E1E0E948F
:103C8000961EC8EDD0E088818F7788838881806810
:103C9000888388818F7D888319BC1092B502109229
:103CA000B1021092B3021092B20200EE10E0F801DD
:103CB00080818B7F808388818160888342E060E09F
:103CC00080E00E949B1DE1EEF0E080818E7F80838A
:103CD000E2EEF0E080818160808380818860808373
:103CE000F80180818E7F8083888180618883DF9165
:103CF000CF911F910F910895E8EDF0E080818F7EC4
:103D00008083E7EDF0E080818160808384E082BF82
:103D100081E08093B4020E94391E0895E8EDF0E03E
:103D200080818E7F80831092E20008951092DA00E5
:103D30001092E10008951F920F920FB60F92112476
:103D40002F933F934F935F936F937F938F939F93A3
:103D5000AF93BF93EF93FF938091E10082FF0BC07D
:103D60008091E20082FF07C08091E1008B7F809309
:103D7000E1000E94FA208091DA0080FF19C0809152
:103D8000D80080FF15C08091DA008E7F8093DA0022
:103D90008091D90080FF96C080E189BD82E189BD14
:103DA00009B400FEFDCF81E08093B5020E94DB1ACA
:103DB0008091E10080FF19C08091E20080FF15C072
:103DC0008091E2008E7F8093E2008091E20080612A
:103DD0008093E2008091D80080628093D80019BC63
:103DE00085E08093B5020E94EF1A8091E10084FF84
:103DF0002BC08091E20084FF27C080E189BD82E171
:103E000089BD89B5982F917080FFFBCF8091D80034
:103E10008F7D8093D8008091E1008F7E8093E100B8
:103E20008091E2008F7E8093E2008091E2008160C9
:103E30008093E2008091B102882309F449C084E0B4
:103E40008093B5020E94F81A8091E10083FF29C097
:103E50008091E20083FF25C08091E100877F8093FD
:103E6000E10082E08093B5021092B1028091E100FE
:103E70008E7F8093E1008091E2008E7F8093E2004C
:103E80008091E20080618093E20042E060E080E0A7
:103E90000E949B1D8091F00088608093F0000E943A
:103EA000EC1AFF91EF91BF91AF919F918F917F910C
:103EB0006F915F914F913F912F910F900FBE0F9097
:103EC0001F90189519BC1092B5020E94E91A70CF84
:103ED0008091E30087FD93E09093B502B3CF1F92EA
:103EE0000F920FB60F9211242F933F934F935F932E
:103EF0006F937F938F939F93AF93BF93CF93DF93F2
:103F0000EF93FF93D091E900DF708091EC00C82F10
:103F1000C17080FDC0E81092E9008091F000877FB9
:103F20008093F00078940E94B31F1092E900809172
:103F3000F00088608093F000CD2BCF70C093E90033
:103F4000FF91EF91DF91CF91BF91AF919F918F91B1
:103F50007F916F915F914F913F912F910F900FBE85
:103F60000F901F901895AAE2B0E0E9EBFFE10C94E6
:103F7000532186EB92E02091F100FC012193CF01C7
:103F8000F2E08E3B9F07B9F70E94181B8091E80072
:103F900083FF1EC18091B6029091B7029A3008F05B
:103FA00017C1E92FF0E0E65FFD4D0C943E2180380B
:103FB00099F0823809F00CC18091BA028F70873075
:103FC00008F006C18093E9008091EB0085FB88270B
:103FD00080F91092E90006C08091B2029091B3027C
:103FE000911182609091E800977F9093E800809310
:103FF000F1001092F1008091E8008E77E5C08823EF
:1040000009F4D3C0823009F0E3C08091B802811175
:10401000D6C08091BA028F702FEF280F263008F09B
:10402000D7C08093E9002091EB0020FFC8C09330F7
:1040300031F48091EB0080628093EB00C0C09091DE
:10404000EB0090619093EB0021E030E001C0220F83
:104050008A95EAF72093EA001092EA008091EB003B
:104060008860EACF8111B4C01091B8021F778091A7
:10407000E3008078812B8093E3008091E800877FC4
:104080008093E8000E94CF1D8091E80080FFFCCF64
:104090008091E30080688093E30082E0111183E067
:1040A0008093B50295C08058823008F091C080910D
:1040B000B8029091B9028C3D23E09207A1F583E00C
:1040C0008A838AE289834FB7F894DE01139620E051
:1040D0003EE051E2E32FF0E050935700E49120FFDF
:1040E00003C0E295EF703F5FEF708E2F90E0EA30F3
:1040F000C0F0C7968D939D932F5F243159F74FBF22
:104100008091E800877F8093E8006AE270E0CE014A
:1041100001960E94DE1C8091E8008B778093E80076
:1041200057C0C096E7CF6091BA027091BB02AE0152
:104130004F5F5F4F0E94191CBC01892B09F448C0D6
:104140009091E800977F9093E80089819A810E947E
:104150003C1DE1CF8038E1F58091E800877F8093B6
:10416000E8008091B1028093F10045CF811130C009
:104170009091B802923060F58091E800877F80933B
:10418000E8009093B1020E94CF1D8091B102882374
:1041900011F084E005C08091E30087FDFACF81E053
:1041A0008093B5020E94031B13C08091B802813036
:1041B00079F481E0933009F080E08093B3021092AB
:1041C000E9008091E800877F8093E8000E94CF1D7E
:1041D0008091E80083FF0AC08091E800877F809388
:1041E000E8008091EB0080628093EB00AA96E3E008
:1041F0000C946F210895CF938091B5028823A1F08C
:10420000C091E900CF709091EC00892F817090FDF2
:1042100080E8C82B1092E9008091E80083FD0E949D
:10422000B31FCF70C093E900CF910895AA1BBB1BA9
:1042300051E107C0AA1FBB1FA617B70710F0A61BA6
:10424000B70B881F991F5A95A9F780959095BC01C7
:10425000CD01089597FB072E16F4009407D077FD43
:1042600009D00E94162107FC05D03EF49095819557
:104270009F4F0895709561957F4F0895EE0FFF1F32
:104280000590F491E02D09942F923F924F925F9206
:104290006F927F928F929F92AF92BF92CF92DF9256
:1042A000EF92FF920F931F93CF93DF93CDB7DEB7BB
:1042B000CA1BDB0B0FB6F894DEBF0FBECDBF09944F
:1042C0002A88398848885F846E847D848C849B84A6
:1042D000AA84B984C884DF80EE80FD800C811B81B4
:1042E000AA81B981CE0FD11D0FB6F894DEBF0FBEE3
:1042F000CDBFED010895FB01DC0104C08D9101905B
:10430000801921F441505040C8F7881B990B08953B
:10431000FB01DC0102C001900D9241505040D8F7E2
:104320000895F999FECF92BD81BDF89A992780B57D
:104330000895A8E1B0E042E050E00C94C521262F9A
:10434000F999FECF92BD81BDF89A019700B402168B
:1043500039F01FBA20BD0FB6F894FA9AF99A0FBE39
:1043600008950396272F0E94A0210E949F21252FA8
:104370000E94A021242F0C94A0210196272F0E9497
:10438000A0210C949F21DC01CB01FC01F999FECF07
:1043900006C0F2BDE1BDF89A319600B40D924150CD
:1043A0005040B8F70895F894FFCF8D068D06DE06CD
:1043B000DE0651076D07BC06BC067207E307F2076D
:1043C000F2077415E8157C1546154A1580154E152B
:1043D000841590155A15E1155E15941562159815FA
:1043E000C01566159C15C7156C15A215AA15521592
:1043F000881556158C157015A615B615D015DF1530
:1044000040157815EF15A316A91692169D16AF162E
:10441000B516BB16D71FFF1FE820FF1FE82032206C
:084420005320E820AA20B62079
:104428001C02280850011E0A1401821AB71AB01A71
:10443800A91A01E200E900EA00B500B600B700CD0C
:10444800008301CC008A01920194012102230224F5
:10445800022502260227022A02B300B4006F007068
:10446800009F01CB019F02A002818283E200E90044
:10447800EA00B500B600B700CD008301CC008A0180
:104488009201940121022302240225022602270216
:104498002A02B300B4006F0070009F01CB019F0295
:0644A800A00281828300E6
:00000001FF
