:100000000C945E020C947B020C947B020C947B0299
:100010000C947B020C947B020C947B020C947B026C
:100020000C947B020C947B020C944A1F0C941E20AF
:100030000C946A1A0C947B020C947B020C947B0245
:100040000C947B020C947B020C947B020C947B023C
:100050000C947B020C94F11A0C947B020C947B029E
:100060000C947B020C947B020C947B020C947B021C
:100070000C947B020C947B020C947B020C947B020C
:100080000C947B020C947B020C947B020C947B02FC
:100090000C947B020C947B020C947B020C947B02EC
:1000A0000C947B020C947B020C947B0200000000F9
:1000B0000000000000000000000000000000000040
:1000C0000000000000000000000014001A000800FA
:1000D00015001700000000001C0018000C001200A2
:1000E00013000000000004281624072109220A003A
:1000F000000000000B000D320E310F3433380000C9
:1001000000001D001B000600190005000000000093
:100110001100100036003700380000000000000019
:10012000000029422B4100000000000000002A418D
:100130004C420000000000000000000000002C43C2
:100140000000000000000000000000002843000044
:10015000000000000000000000000000000000009F
:10016000000000000000000000000000000000008F
:1001700000002F00240025002600300000000000B1
:1001800079007C007D007B007A00000000003428AC
:100190002124222123222E00000000005000513291
:1001A00052314F3400380000000035001E001F009F
:1001B00020003100000000004A004E004B004D00BE
:1001C000000000000000000000003742274100004E
:1001D000000000000000004100420000000000009C
:1001E0000000000000002D4300000000000000009F
:1001F00000000000004300000000000000000000BC
:1002000000000000000000000000000000000000EE
:100210000000000000000000000045004000410018
:10022000420000000000000000000000000000008C
:10023000037C0000000044283D243E213F220000B2
:1002400000000000BC00AA32A931BB340038000015
:10025000000043003A003B003C00000000000000AA
:10026000000000000000000000000000000000008E
:100270000000004200410000000000000000AE410C
:10028000A842000000000000000000000000004341
:10029000000000000000000000000000AD4300006E
:1002A000000000000000000000000000000000004E
:1002B000000000000000000000000000000000003E
:1002C00000002F0224022502260230020000000056
:1002D00000000000000000000000000000003328C3
:1002E0002124222123222E020000000000000032DF
:1002F0000031003400380000000035021E021F02E9
:100300002002310200000000000000000000000098
:10031000000000000000000000002642274100000D
:10032000000000000000004100420000000000004A
:100330000000000000002D4300000000000000004D
:100340000000000000430000000000001203450010
:10035000720067006F0064006F006E0065000000AF
:1003600012034B002E0054002E0045002E004300C7
:100370002E0000000403090409023B00020100A052
:10038000FA09040000010301010009211101000123
:100390002240000705810308000109040100010350
:1003A00000000009211101000122B60007058203A7
:1003B0002000011201000200000008091228230198
:1003C000000102000105010902A10185020901A144
:1003D00000050919012908150025019508750181F5
:1003E000020501093009311581257F9502750881C3
:1003F0000609381581257F950175088106050C0AC7
:1004000038021581257F950175088106C0C0050158
:100410000980A101850319012AB700150126B7003B
:10042000950175108100C0050C0901A10185041911
:10043000012AA002150126A002950175108100C0B5
:1004400005010906A1018506050719E029E7150040
:1004500025019508750181020507190029EF15008E
:10046000250195F0750181020508190129059505F9
:1004700075019102950175039101C005010906A15D
:1004800001050719E029E715002501950875018187
:10049000029501750881010507190029FF1500263D
:1004A000FF009506750881000508190129059505C5
:1004B00075019102950175039101C00011241FBEC1
:1004C000CFEFDAE0DEBFCDBF11E0A0E0B1E0E6EAB9
:1004D000F5E402C005900D92A638B107D9F722E0E5
:1004E000A6E8B1E001C01D92A83CB207E1F70E9466
:1004F0003A130C9492220C9400008091880181118F
:100500000EC00E9479172FEF83ED90E321508040B9
:100510009040E1F700C0000081E0809388010895D9
:10052000A1E0B0E0E6E9F2E00C94FF214983F82E67
:10053000FF0C81E09DE0E92E611103C080E02CE01A
:10054000E22E04E610E021E030E0AE014F5F5F4FA5
:10055000682F8F2D0E945F18892B61F421E030E015
:10056000AE014F5F5F4F6E2D8F2D0E945F1821E00F
:10057000892B09F020E0822F2196E6E00C941B22C3
:100580000F931F93880F61110FC062E104E610E022
:1005900021E030E00E94861821E0892B09F020E05C
:1005A000822F1F910F91089563E1F0CF80918B010D
:1005B00081110CC04FEF61E080E20E94900291E057
:1005C000892790918B01980F90938B010895CF9379
:1005D0004FEF60E080E20E949002C1E08C27909192
:1005E0008B01980F90938B014FEF61E080E20E94A6
:1005F00090028C27C0918B01C80FC0938B01CF91C3
:10060000089580E20E947D022198299822982A98D4
:1006100084988C9885988D9886988E9887988F98CE
:1006200029982A988C988D988E988F980E94D60237
:100630006E98769A52985A9A53985B9A54985C9A04
:1006400057985F9A3E98469A24982C9A0E94E702FF
:100650000895A1E0B0E0EFE2F3E00C94F3218C0107
:1006600080918B01882371F08091890190918A019A
:100670000196811520E2920708F0A6C090938A01A6
:10068000809389014801512C412C00E0142DF40184
:10069000219031904F01129212925F01133009F4B0
:1006A000ACC008F09CC0113009F4A1C0123009F4AC
:1006B000A1C0849A8C9880918B0192012F5F3F4F4B
:1006C0002901882309F49FC08FE891E00197F1F791
:1006D00000C0000080918B01712C612C81111FC022
:1006E0009FEF9983AE014F5F5F4F60E080E20E9411
:1006F000C00291E0892790918B01980F90938B0114
:10070000898180950E94A905982F96959C77837082
:10071000892B782E7594682E6794662467944B997C
:1007200085C080E4C82ED12C4A9983C0A0E2B0E0F5
:100730004C9982C0E0E1F0E0369981C068E070E059
:100740004F9980C044E050E066997FC022E030E0DD
:1007500083B182958F7091E0892780FBEE24E0F8C9
:10076000F12CC701862997298C299D298A2B9B2B3F
:100770008E2B9F2B682B792B462B572B242B352B1D
:10078000F50131832083133009F473C008F060C091
:10079000113009F466C0123009F467C084988C984F
:1007A0008C9881E0F501208131812215330509F40F
:1007B00080E0082BF6E04F16510409F067CF802F38
:1007C0002196E2E10C940F2210928A011092890185
:1007D00010928B010E94D6020E94E70253CF143080
:1007E00079F0153009F065CF229A2A9864CF859A5E
:1007F0008D9861CF869A8E985ECF879A8F985BCFBF
:10080000219A299858CF41E050E001C0440F2A9521
:10081000EAF7409561E080E20E94900291E089272A
:1008200090918B01980F90938B0154CFD12CC12CB8
:100830007BCFB0E0A0E07CCFF0E0E0E07DCF70E0E7
:1008400060E07ECF50E040E07FCF30E020E080CF1E
:10085000143099F0153009F0A1CF22982A982A98DF
:10086000A0CF85988D988D989CCF86988E988E98DD
:1008700098CF87988F988F9894CF21982998299806
:1008800090CF259A2D980895269A2E980895239A08
:100890002B980895559A5D9A08950E9441040E94EC
:1008A00044040E9447040E944A04559A5D982FEF21
:1008B00080E792E0215080409040E1F700C00000C6
:1008C000259A2D9A2FEF80E792E0215080409040AA
:1008D000E1F700C00000269A2E9A2FEF80E792E001
:1008E000215080409040E1F700C00000239A2B9AED
:1008F0002FEF80E792E0215080409040E1F700C068
:1009000000000E9441042FEF80E792E021508040D8
:100910009040E1F700C000000E9444042FEF80E700
:1009200092E0215080409040E1F700C000000E941A
:1009300047042FEF80E792E0215080409040E1F79C
:1009400000C000000E944A040E9441040E94440426
:100950000E9447040E944A040E94C40F08958430F4
:10096000B8F46630A8F44E3098F450E09EE0699FE9
:10097000400D511D1124FA0194E5899FE00DF11DF0
:100980001124EE0FFF1FE455FF4F859194910895B8
:1009900081E090E008950E94AF04089581E00895F9
:1009A0000E94CE04089581E008950E94CE04089527
:1009B0000E94D504089508950E94DB040895A6E0DE
:1009C000B0E0E5EEF4E00C94022249835A839E8362
:1009D0003091910189819A8131111AC03E8133236E
:1009E00099F0222389F00E949C0A182F682F898190
:1009F0009A810E94780A69817A81812F0E948011F0
:100A00002696E3E00C941E220E948A0A182FF3CF48
:100A10000E949C0A69817A81F1CFFC01262F4081D6
:100A2000518162817381848195810E94DF040895E0
:100A3000CF93DF93EC0161E00E940D05BE010E949F
:100A4000D004DF91CF910895CF93DF93EC0160E064
:100A50000E940D05BE010E94DC04DF91CF91089534
:100A600008950E944D090E9430052FEF84E39CE019
:100A7000215080409040E1F700C0000008950E949E
:100A800031050E94151B08950E9431050E94261B06
:100A900008950F931F93CF93DF938C0161E00E9421
:100AA0000D05EC01B8010E94D804811106C080E058
:100AB000DF91CF911F910F910895B801CE010E944F
:100AC00035178823A1F3B801CE010E94CB158823E6
:100AD00071F3B801CE010E94A716882341F3F801F3
:100AE0008581882361F0C330FCE7DF07E9F058F423
:100AF000C115ECE7DE07A9F0C130DC47B9F0C80149
:100B00000E94D304D5CFCB358CE7D807A9F0CC35DC
:100B1000ECE7DE0771F0CA35DC4789F70E94D20E98
:100B2000EECF0E943F05C3CF0E94DA0E0E9444051B
:100B3000BECF0E94C80EE3CF0E94D60EE0CF0E9427
:100B4000461A0E94F30508950E94F7050E944B1A69
:100B50000895829590E09C01220F331F220F331FCE
:100B60002C7C95958795959587958373282B30E0F8
:100B7000C901880F991F8A7A359527952575822B8B
:100B80000895089581E0089580FF08C02D9A81FF9F
:100B900007C02E9A82FF06C02B9A08952D98F7CF92
:100BA0002E98F8CF2B980895CF93DF93D82F0E94DB
:100BB000C205C82F882319F08D2F0E94C4058C2FE1
:100BC000DF91CF910895259A2D98269A2E98239AF1
:100BD0002B980895CF93C82F0E94C1058C2F0E9497
:100BE000D405CF91089580E00E94EA0508950E94FF
:100BF000D9180E94EA050895CF930E94D918C82FEA
:100C000080918C018C1779F0C0938C010E94D61AC8
:100C100060938D0170938E0180938F01909390016A
:100C20008C2F0E94EA05CF910895ADE0B0E0EBE192
:100C3000F6E00C940322488759876A877B878C8764
:100C40009D8791110E94000E1F8286E0FE0138965A
:100C5000DE01119601900D928A95E1F78D81811147
:100C60000DC029813A814B815C816D817E818F81AC
:100C70000E94330D2D96E2E00C941F22CE010196C6
:100C80000E9418058111EDCFF5CFFC0124812130A0
:100C900021F4808191810E94CE0A0895662329F073
:100CA0000E94BE130E94911408950E941814FACF56
:100CB000CF93C82F8823B9F08CEF8C0F813AA8F41A
:100CC0006C2F80910001909101010E946C19882382
:100CD00029F08C2F0E94C00D0E94390E8C2F0E948B
:100CE000B80D0E94390ECF91089580E28C0F8830A4
:100CF00048F4C77081E001C0880FCA95EAF70E94E6
:100D0000E30DEFCFEBE5EC0FE33040F4F0E0E75B11
:100D1000FE4F808190E00E940E19E5CFE8E5EC0FD0
:100D2000EB3150F4F0E0EE0FFF1FED5EFE4F8081DF
:100D300091810E943319D7CF83E38C0F833198F6CA
:100D400061E08C2F0E944E06CECF882381F19CEF6C
:100D5000980F913A28F40E94C00D0E94390E089510
:100D600090E2980F983050F4877091E001C0990F8D
:100D70008A95EAF7892F0E94E90DEFCF9BE5980F3E
:100D8000933028F490E080E00E940E19089598E5D1
:100D9000980F9B3128F490E080E00E943319089569
:100DA00093E3980F933118F460E00E944E06089583
:100DB0001F93CF93DF93182FEB010E9458062097C3
:100DC00039F4812F0E94A506DF91CF911F910895DC
:100DD0008FE99FE00197F1F700C000002197EFCF66
:100DE00070E060E0893311F460E570E00E94D8069D
:100DF0000895882321F00E94E30D0E94390E089582
:100E0000882321F00E94E90D0E94390E0895B0E078
:100E1000A0E0EDE0F7E00C94FC216C01D62FC72F89
:100E2000FC011581068102950F700E94D90DE82EF4
:100E30008823E9F0E12E1123D1F08C2F807F8034BC
:100E400051F080E28D0F8830F8F0011104C08C2F32
:100E5000807E8032C9F080919E0282FF15C082E0C0
:100E60000E949C0E0E94D90D91E0E82EE926BC2E2E
:100E7000B2949FE0B922FBE0FB15B8F1EB2DF0E056
:100E8000EC56FD4D0C94ED21E12CF1CF0C2F0F70A1
:100E9000C07F11F00295007F112399F0002359F0D3
:100EA00080E28D0F883010F0D11107C0802F0E9492
:100EB000E30D0E94390E8D2F5AC0802F0E94F30D32
:100EC000F8CF8D2F0E94A506002379F080E28D0FC8
:100ED000883010F0D11104C0802F0E94E90D03C0AA
:100EE000802F0E94F90D0E94390EEB2DE850FF0B68
:100EF000349720F40E94D9180E94EA05EE2089F068
:100F00000E94D50D80FD0DC0F60115820E94CF0D07
:100F10000E94D609C6010E9414090E94CF0D0E94AA
:100F2000E609CDB7DEB7E9E00C9418222C2F2F701C
:100F3000F22EC07FC03219F0F29480EFF822DD2348
:100F400041F0D130D1F1112309F444C00023F1F074
:100F5000B2CF80919E0282FD15C0112359F0FF206F
:100F600029F08F2D0E94E30D0E94390E80E00E942F
:100F70005806BBCF80E00E94A506FF2009F4B5CF3C
:100F80008F2DABCF112369F0011104C08F2D0E946A
:100F9000F906ABCF013009F0A8CF8F2D0E94170EB4
:100FA000A4CF0111A2CF8F2D0E9400078F2D0E9488
:100FB000230E8F2D0E94070E98CF112321F00630AB
:100FC00008F093CFE3CF053008F08FCF8F2D0E942C
:100FD00000078BCF0023D1F3D93349F43FEF87EEDD
:100FE00093E0315080409040E1F700C000008D2F29
:100FF0000E94A5067ACF8C2F86958695837069F01E
:10100000813009F072CF8D2F9C2F9370111102C087
:1010100080E090E00E94331968CF8D2F9C2F937051
:10102000111102C080E090E00E940E195ECF612F86
:101030008D2F0E944E0659CF8C2F8370A1F5111170
:1010400054CF4D2F429546954770440F440F2D2F96
:101050002F7030E0042E02C0220F331F0A94E2F7F3
:1010600090E080E0D4FF09C08FE090E002C0880FDC
:10107000991F4A95E2F780959095C695C695C370DD
:10108000822B932BC23049F058F4C13019F00E94E2
:10109000A6092BCF0E949D0928CF0E94AF0925CF1A
:1010A0000E949A0922CF8695112311F08C2F81700E
:1010B000882309F41ACF4D2F429546954770440F67
:1010C000440F2D2F2F7030E0042E02C0220F331F4B
:1010D0000A94E2F790E080E0D4FF09C08FE090E04E
:1010E00002C0880F991F4A95E2F780959095C695A2
:1010F000C695C370822B932BC23049F058F4C1308F
:1011000019F00E94110AF1CE0E94080AEECE0E9448
:101110001A0AEBCE0E94BE09E8CECF70112329F047
:101120008C2F0E94D6098D2F32CF8D2F0E94000761
:101130008C2F0E94E609D9CED23F41F160F4D03F16
:10114000B9F0D13F81F0112309F446C00111B3CEAB
:101150008C2F8F711FC0D33F01F1D43FA1F7809135
:101160009E0282FD24C08C2F8F71112311F312C0B7
:10117000112341F0053008F0B8CE8C2F8F710E94FA
:10118000F809B3CE063008F0B0CEF7CF8C2F8F71B0
:101190001111CFCF0E94D609A8CE112329F08C2F90
:1011A0008F710E94CA09A1CE0E94C5099ECE11234B
:1011B00049F0CF718C2F0E94D60963E08C2F0E94DA
:1011C0007E0E93CE81E00E949C0E023008F48DCEFC
:1011D00082E00E949C0E89CE002359F0D93309F099
:1011E00006CFEFEFF7EE23E0E150F0402040E1F7CB
:1011F000FCCE8C2F8F719DCF0F931F93CF93DF93D6
:10120000EC01688179818D810E94D90A8C010E944C
:10121000230A0E949909B801CE010E940707DF91B5
:10122000CF911F910F910895CF93DF93EC018C81A3
:10123000882399F0CE010E944905811111C00E94B6
:10124000D90D882351F08D81882339F080919E0239
:1012500082FF03C082E00E949C0EDF91CF9108952F
:10126000CE010E94FC08CE010E942405F6CF90E03A
:1012700080E00E940E1990E080E00E9433190E94E5
:10128000000E0E94390E0E94AD140E949114089520
:101290000E94C80D0E94370908950E94F00D0E9417
:1012A0004809089592959F70963091F058F4925F96
:1012B0009F70923058F4803F19F030F4883E30F43B
:1012C00081E008959A5FF4CF843FD1F380E00895E0
:1012D000883EB0F3813FD1F7F3CFFC012481222374
:1012E00039F0808191810E94CE0A0E9452090895AE
:1012F00080E00895A6E0B0E0E0E8F9E00C94032275
:101300002696E2E00C941F22A7E0B0E0EAE8F9E0BC
:101310000C9403222796E2E00C941F2208950E9469
:101320008E0908950E948F099093C1018093C00196
:10133000089508950E94920908952091C001309166
:10134000C101822B932B0E94920908952091C00124
:101350003091C101822393230E9492090895209124
:10136000C0013091C101822793270E9492090895FC
:101370000E948E0908950E94B80908950E94BB0931
:101380009093BF018093BE01089590E080E00E9499
:10139000BE09089521E030E0A90102C0440F551FA5
:1013A0008A95E2F7CA010E94BE09089521E030E063
:1013B00002C0220F331F8A95E2F78091BE019091FF
:1013C000BF01822B932B0E94BE09089521E030E0DB
:1013D00002C0220F331F8A95E2F720953095809145
:1013E000BE019091BF01822393230E94BE090895FC
:1013F00021E030E002C0220F331F8A95E2F780918E
:10140000BE019091BF01822793270E94BE090895D3
:101410002091BE013091BF01822B932B0E94BE0907
:1014200008952091BE013091BF01822393230E9431
:10143000BE0908952091BE013091BF0182279327F4
:101440000E94BE0908950895262F277091E001C0DB
:10145000990F2A95EAF723E0769567952A95E1F7A3
:10146000660F771F660F771FFA01E60FF71F50E030
:1014700040E0682F70E08191DF0111979B01042EFD
:1014800002C0369527950A94E2F721702195282706
:10149000292328272C934F5F5F4F4430510559F77C
:1014A0000895A82FA77023E0969587952A95E1F7D0
:1014B000880F991F880F991FFB01E80FF91F50E053
:1014C00040E080E0219130E00A2E02C03695279559
:1014D0000A94E2F721703327042E01C0220F0A94E8
:1014E000EAF7822B4F5F5F4F4430510559F708955B
:1014F000262F963070F48E3060F4682F70E08EE006
:10150000989F600D711D112442E951E0822F0E94C5
:10151000240A0895292F963068F48E3058F490E00C
:1015200062E971E03EE0239F800D911D11240E942D
:10153000510A089580E00895B0E0A0E0E2EAFAE000
:101540000C94FC217C010091BE011091BF0180919F
:10155000C0019091C101082B192BCFE0D0E0CC2421
:10156000C394D12CBC2EC6010C2E02C0880F991F2B
:101570000A94E2F780239123892B49F4219790F76D
:10158000B12C8B2DCDB7DEB7E9E00C941822B70152
:101590008C2F0E948C11019789F3F3CFCF93DF93A7
:1015A000EC010E949C0ABE010E948C11DF91CF9138
:1015B00008951F93CF93DF93EB01909191019923AD
:1015C00039F0CB010E94CE0ADF91CF911F9108958F
:1015D000882369F0CB010E949C0A182F682FCE0146
:1015E0000E94780ABE01812F0E948C11EDCFCB01A1
:1015F0000E948A0A182FF6CF1F93CF93DF93C091D2
:10160000C20117E08091C3018C1304C0DF91CF9118
:101610001F910895D0E01C9FF0011D9FF00D112433
:10162000EC53FE4F20813181428153816481758169
:1016300086810E9484092196C770E4CF2091FC0125
:101640003091FD014091FE015091FF016091000237
:1016500070910102809102020E9484090895CF9343
:10166000DF9380910202807F09F04DC080910102DA
:10167000882309F448C0E091C2015091C301C09190
:10168000FD01D091FC016091FE017091FF0147E0E6
:101690005E17C9F18E2F90E0E49FF0011124EC5306
:1016A000FE4F2481222391F1489FF001499FF00DC4
:1016B0001124DF01AC53BE4F11962C9111972C13BE
:1016C00025C02C912D1322C015962C911597211110
:1016D0001DC012962D913C91261B370B283C3105DD
:1016E000A8F4809102028F70806180930202E65319
:1016F000FE4F80818F70806180838CEF91E00E942B
:1017000014090E94FC0ADF91CF910895FC013196E3
:10171000E770BECF482F2091C2019091C30157E0DE
:10172000291302C080E0089530E0529FF001539FDA
:10173000F00D1124EC53FE4F8181681306C08081A7
:10174000481303C085818111EECF2F5F3F4F277073
:10175000E7CFA4E1B0E0EFEAFBE00C94F9218C01C3
:1017600086E0F801DE011F9601900D928A95E1F75F
:10177000F8018481E5809CEFA92E91E0B92E90912B
:10178000000291111FC08823D1F0EE20A9F0C801FA
:101790000E946D09F82E882379F087E0F801D501C1
:1017A00001900D928A95E1F7C5010E9445060E94BD
:1017B0002F0B0E941E0B5FC0C8010E941409FF245A
:1017C000F39459C0C080D18082809380F090010250
:1017D0002091FE013091FF01A401421B530BFF2019
:1017E00009F4F9C0483C510508F0A7C0882309F462
:1017F00042C09091FD0180910202282F207F09F0C4
:101800005CC09D1116C09091FC01C91212C0E1107C
:101810004EC08F708061809302020E941E0B8CEF7D
:1018200091E00E94140980910202F8018683F12C54
:1018300022C0E1103CC06D2D8C2D0E948A0B6D2DB5
:101840008C2D0E948A0BE82E8111F1CFCF86D88A89
:101850008F8598890E94CE0A292F22952F702430D7
:1018600078F49F702230A8F09923B9F0F80196819E
:10187000907F99F4FE2C8F2D6496ECE00C94152249
:101880002A5F2F70223068F0C8010E941409EF2CE3
:10189000F1CF992311F0882369F3805E883050F3EB
:1018A000F3CF803F38F3815F833070F7E3CF8091CF
:1018B0000202816080930202BACF9D1113C0909101
:1018C000FC01C9120FC0E1100DC08683C8010E943F
:1018D000140987E0F801ACEFB1E001900D928A9510
:1018E000E1F767CFC8010E946D09882309F464CF2E
:1018F000EE2009F461CF80910202803288F02091BD
:10190000FC013091FD01398728879B868A8690915A
:1019100000029C871D868E87CE0108960E941409BE
:1019200087E0F801ACEFB1E001900D928A95E1F704
:101930000E942F0B0E941E0B42CF90910202292F72
:10194000207FA1F4682D9A8A898AA6017A899E2D22
:101950000E947A098CEF91E00E94140987E0F5015A
:1019600011928A95E9F70E941E0B61CF882309F432
:1019700082CF8091FD018D1110C08091FC01C812B1
:101980000CC0E1100AC09683C8010E94140987E0C8
:10199000F50111928A95E9F76ECFC8010E946D0991
:1019A000882309F409CFEE2009F406CF80910202C2
:1019B000803208F4B5CF2091FC013091FD013A83CB
:1019C00029839C828B82909100029D831E828F834B
:1019D000CE010196A3CF483C5105B8F5882309F400
:1019E000EECEFE2CEE2009F4E7CE8091FD018D11A4
:1019F0001EC08091FC01C8121AC08091020280FDB5
:101A00000DC0982F907F51F08683903F09F45ECFF0
:101A1000982F907F905F8F70892B57CF87E0F801C8
:101A2000ACEFB1E001900D928A95E1F724CFC801A7
:101A30000E946D09811174CF8091020281608093B0
:101A40000202C8010E94140916CF682D9A8A898A59
:101A5000A6017A899E2D0E947A0987E0F5011192EC
:101A60008A95E9F7A6CEAEE0B0E0E9E3FDE00C949C
:101A70000222288739874A875B876C877D878E8714
:101A8000CE0108960E94A90B8823B1F06C856623CD
:101A900041F0288539854A855B857D858E850E9444
:101AA000840917E08091C2019091C30189133DC060
:101AB0002E96E3E00C941E2287E0FE013896DE01AC
:101AC000119601900D928A95E1F78C85882349F350
:101AD0002091C30130E0C901019687709927409198
:101AE000C2014817190699F097E0929FD001939F81
:101AF000B00D1124AC53BE4FFE01319601900D92F2
:101B00009A95E1F78093C3010E94FC0ACACF0E9414
:101B10004D091092C3011092C20187E0ECEFF1E091
:101B2000DF011D928A95E9F7BCCF819FC001112486
:101B30008C539E4F0E94A90B882309F4B9CFE091E2
:101B4000C2011E9FF0011124EC53FE4F2081318110
:101B5000428153816481758186810E9484098091CC
:101B6000C20190E00196877099278093C2019ACFB5
:101B7000682F80910001909101010E94EC19089555
:101B8000682F80910001909101010E94FA19089537
:101B900080910001909101010E94081A089580919E
:101BA00023028695869586950895809123028770F5
:101BB000089590912302977081E009F480E00895E0
:101BC00080914702089590914702892B80934702A4
:101BD0000895809590914702982390934702089525
:101BE00010924702089590914602892B80934602F5
:101BF0000895809590914602982390934602089507
:101C000010924602089508950E94030E089590913F
:101C10002402292F282331F08095892380932402E0
:101C20000E94040E089508950E94130E0895909145
:101C30002502292F2823281729F0982B9093250275
:101C40000E94140E089590912502292F282331F027
:101C500080958923809325020E94140E0895809117
:101C60002502882329F01092250280E00E94140E9C
:101C70000895CF93DF93E0910001F09101018091ED
:101C800047028083E0910001F091010180819091F1
:101C90004602892B808390912502992381F0E0915F
:101CA0000001F09101018081892B808380910001E6
:101CB000909101010E94581981110E942F0EC0912C
:101CC0000001D091010140E250E063E072E0CE01FA
:101CD0000E942A22892B59F080E2FE01A3E0B2E0A3
:101CE00001900D928A95E1F7CE010E94E618DF91EE
:101CF000CF91089508950E947A0E089590919E02C2
:101D000092FF11C098E0899F90011124622B60938B
:101D100023020E94D6098091230286958695869596
:101D20000E947B0E08950E94D60908951092230206
:101D300080E00E947B0E0895909123028095892374
:101D400080932302282F277069F4891759F0909106
:101D50009E0292FF07C08695869586950E94E609A9
:101D60000E94960E089590919E0292FB222720F9E0
:101D7000281769F080FB92F990939E0280919D0252
:101D800090919E020E94FB0E82E00E949C0E08959C
:101D900080919E0282FB882780F991E089270E942A
:101DA000B30E089581E00E94B30E089580E00E9472
:101DB000B30E08956FEF7FEF90E080E00E947C22E9
:101DC000089590E080E00E94482221E0863E9E4FE8
:101DD00009F020E0822F089582E090E00E944022E6
:101DE000089583E090E00E944022089584E090E00E
:101DF0000E9448220895BC0184E090E00E947C2269
:101E00000895AB01BC018FE090E00E94702208951C
:101E1000AB01BC0183E190E00E947022089560E074
:101E200070E0CB010E94080F089560E070E0CB01E4
:101E30000E94010F0E940F0F0895A8E0B0E0E3E2B6
:101E4000FFE00C94032266EE7EEF90E080E00E94BB
:101E50007C2260E082E090E00E945E2260E083E00D
:101E600090E00E945E221092C1011092C00160E0D9
:101E700074E184E090E00E947C2260E086E090E0E3
:101E80000E945E226FEF87E090E00E945E2240E0B9
:101E900050E0BA0188E090E00E94702260E084E2A5
:101EA00090E00E945E2260E087E190E00E945E2266
:101EB00060E08CE090E00E945E2260E08DE090E0C7
:101EC0000E945E2219821A821B821C821D821E823F
:101ED0001F82188648E050E068E170E0CE0101966C
:101EE0000E944E2240E050E0BA0180E290E00E9461
:101EF00070220E94150F2896E2E00C941F220E9487
:101F00001D0F0895682F8EE090E00E945E220895D4
:101F1000A6E0B0E0EEE8FFE00C9401220E94CA1AAD
:101F20008C0180914802909149028017910781F0BD
:101F300019821A820E94CA1A682F49815A81792F00
:101F400080E090E00E941506109349020093480239
:101F50002696E4E00C941D220E94D61A60935A0241
:101F600070935B0280935C0290935D0260935602D3
:101F700070935702809358029093590208950895E0
:101F800008950E94C00F0895089581E0089586E79E
:101F900092E10E94CF180E94BF0F0E94C10F0895C6
:101FA0000E94C50F08950E94D00F089508950895C6
:101FB0000E94D60F0E94D70F08950E9495120E948A
:101FC000E30508950E94C11A0E94C5120E94DD0F08
:101FD0000E944D040895A6E0B0E0E1EFFFE00C940C
:101FE000F7210E94C50F81110AC00E94880F0E942C
:101FF000CF140E94FC052696EEE00C9413220E945A
:10200000D9122AE4822E22E0922E640110E0F60119
:10201000E190F1906F01812F0E94BB121F5F16307B
:1020200009F44BC0E816F90691F380915E0281FD38
:102030000E94C4120E94D30F782E10E0662463948D
:10204000812F0E94BB127C01F401A190B1904F013D
:102050008A159B0561F100E0CC24C394D12CAE24F9
:10206000BF24C5018C219D21892BC1F07720B1F0BF
:1020700009831A830E94CA1A9C838B836D8221E094
:10208000C7018C219D21892B09F420E049815A81C7
:102090006B817C818D81922F0E9415060F5FCC0C85
:1020A000DD1C0E30F1F6F4013297F182E0821F5F01
:1020B000163031F60E94AC0F9ACFE816F90609F0F7
:1020C000B4CF93CF1F93CF93DF930E949111EC0174
:1020D000C11580E5D807F0F5C11580E4D80708F0F0
:1020E0009CC0C03ED10520F5CD3CD10508F082C092
:1020F000C83AD10578F4C53AD10508F073C0C130AB
:10210000D10519F1209709F1C430D105F0F4D0E0E0
:10211000C0E01BC0C33CD105D0F7C85AD0E0CC0FFB
:10212000DD1FC45BDE4F0990D881C02DD4640DC083
:10213000C11580E2D80708F0D1C0C11581E0D807E9
:1021400008F05AC0C83ED10510F7CE01DF91CF91FB
:102150001F910895C03682E5D80718F5C03482E58E
:10216000D80708F06BC0C03282E5D80708F05FC01E
:10217000C11582E5D80708F497C02C2F269526951F
:1021800080E2289F900111248C2F8370C1E0D0E061
:1021900002C0CC0FDD1F8A95E2F7C22BD32BDD687E
:1021A000D4CFC03A82E5D80760F4C03882E5D807BA
:1021B00008F459C0CF71D0E0DC2FCC27C46FD06AAF
:1021C000C4CFC03C82E5D80708F462C0C03E82E5B7
:1021D000D80708F09CCFDC2FCC27CC27DF71C06F4D
:1021E000D06AB3CFC55AD0E0CE57DE4FC881D0E019
:1021F000D064ABCFD065A9CF8D2F0E943312182F9A
:10220000CE0199270E949111C12FD0E0DC2FCC275D
:10221000CC27DF71C82BD92B98CFCE0199270E94EC
:102220009111CC27DF70C82BD92BD06A8ECFCF71FC
:10223000D0E0DC2FCC27C16FD06A87CF2C2F26951A
:102240002695277080E2289F900111248C2F83709F
:10225000C1E0D0E002C0CC0FDD1F8A95E2F7C22BAF
:10226000D32BDC6872CF2C2F26952695277080E221
:10227000289F900111248C2F8370C1E0D0E002C010
:10228000CC0FDD1F8A95E2F7C22BD32BDA685DCF26
:102290008C2F8F710E943312C82FD0E0DC2FCC27F7
:1022A000CC27DF71D06251CF8C2F8F710E943312F7
:1022B00055E0D695C7955A95E1F7CF70D0E0DC2F61
:1022C000CC27282F30E084FF05C044E0220F331FC5
:1022D0004A95E1F7C22BD32BD06937CF8D2F8F7161
:1022E0000E943312182FCE0199270E949111C12FFD
:1022F000D0E0DC2FCC27CC27DF71C82BD92BD2CF55
:10230000462F763030F46E3020F4672F0E94CB04D5
:10231000089590E080E008950E9480110E9462106C
:10232000089582389105B9F1B0F48133910509F42B
:102330007DC048F48932910509F46DC08A32910557
:1023400009F47BC008958533910509F45FC0893392
:10235000910509F10895833E9105D9F138F4803E45
:10236000910529F1823E910579F10895863E910506
:10237000D9F1873E910509F43EC0843E910541F5AF
:1023800020919E0221FF24C080919D0284FD19C0EE
:1023900087EE90E0089520919D02237009F05AC0C5
:1023A00020919E0223FF14C089E290E008952091BD
:1023B0009D0220FD38C030919E0230FF09C024FFED
:1023C00043C090E080E0089520919D0222FDF7CF68
:1023D000089520919D0222FD3AC030919E0230FD69
:1023E00039C024FFF5CFEDCF20919D0223FFF0CF20
:1023F00024FDE7CFCDCF20919D0223FD2EC030914B
:102400009E0231FFEECF84EE90E0089520919D0270
:1024100025FFDECFC9CF20919D0225FD21C020914F
:102420009E0223FFD5CF89E390E0D2CF20919D0279
:1024300026FFCECF8AE290E0089520919D0226FFEC
:10244000C7CF81E390E0089583EE90E0089582EE97
:1024500090E0089580EE90E0089586EE90E0089573
:1024600085E390E0089590919D0292FF06C0282F89
:1024700028712830F9F4877F846093FF06C0282FE5
:1024800028712831F1F4877E846120919E0220FF1B
:1024900006C0382F38713830D9F4877F816021FF2A
:1024A00006C0282F28712831D1F4877E816194FDE0
:1024B000877E0895282F24712430F9F68B7F886059
:1024C000DCCF282F2471243101F78B7E8861DDCF8A
:1024D000382F3171313019F78E7F8860E0CF282F87
:1024E0002171213121F78E7E8861E1CF80E008954E
:1024F0000E94DA0E08950E94D9122FEF86E791E02C
:10250000215080409040E1F700C000000E94D912A5
:1025100080E00E94BB1280FF04C00E9478120E94DB
:10252000151B08950E947B1208950E94E10E8111EF
:1025300002C00E947F0F0E94EC0E80935E020E94F8
:10254000F60E90939E0280939D020E9492120E942A
:10255000F10E90E00E949A098091BE019091BF0116
:102560000E94BB09089508950E94B312089508952A
:102570000E94B7120895E82FF0E0EE0FFF1FE55517
:10258000FD4F80819181089508950E940103EFE934
:10259000F2E0ABEAB2E0119211921D921D9282E03C
:1025A000EB3AF807C1F786E00E94EC120E94B412E1
:1025B0000895CF938FE992E00E942903282F46E0E7
:1025C0006BEA72E08FE992E00E94ED12C82F0E9440
:1025D000B8128C2FCF9108950895CF92DF92EF9289
:1025E000FF921F93CF93DF936C017B01C42F2223B3
:1025F00049F081E0809361020E94CA1A90936002C0
:1026000080935F021091610211110AC010E0812FC6
:10261000DF91CF911F91FF90EF90DF90CF900895C1
:1026200080915F02909160020E94E21A059770F318
:10263000D0E0CC0FDD1FAE01B601C7010E942A22F7
:10264000892B41F0AE01B601C7010E9437221092DA
:102650006102DDCF10E0FBCF0E949B1C0E94E20FC5
:102660000E94A81C08950E94AD1C0E94EB0F0E94BE
:10267000C71C08950E94631A0E94811C0E94C70F04
:102680000E942C130E9433130E94D80FFBCF80911D
:10269000680280FF0DC06091070170E0660F771F30
:1026A0006038710570F56115710569F1862F08951F
:1026B00081FF07C06091070184E0689FB001112489
:1026C000EFCF6091070182FD0AC0809167028823E5
:1026D000A9F02091060160910701821710F088E0AF
:1026E000ECCF869FC001112433E0880F991F3A95E3
:1026F000E1F7622F70E00E94D921D2CF68E070E04C
:10270000D5CF8FE7089581E008958091680280FF1A
:102710000CC06091030170E075956795759567959C
:102720006115710549F1862F089581FF06C06091FA
:10273000030170E075956795F3CF6091030182FD09
:102740000BC0909166029923A1F0609102018091E3
:102750000301961738F0682F70E06038710500F3B8
:102760008FE70895899FC001112470E00E94D9214C
:10277000F4CF61E070E0D7CF81E008958D3C31F473
:102780000E944713819580936C0208958E3C19F442
:102790000E944713F8CF8F3C31F40E944713819574
:1027A00080936B020895803D19F40E944713F8CF7F
:1027B000893D29F40E94851380936D0208958A3D16
:1027C00021F40E9485138195F7CF8B3D31F40E944F
:1027D0008513819580936E0208958C3D19F40E94B3
:1027E0008513F8CF9FE2980F983070F4815D990BB4
:1027F00021E030E001C0220F8A95EAF780916A0259
:10280000822B80936A0208958D3D31F48091680295
:1028100081608093680208958E3D21F48091680262
:102820008260F7CF8F3DB9F7809168028460F1CF65
:1028300040916B028D3C59F480916C0287FF0DC072
:1028400010926C0241110BC01092670208C08E3CBE
:1028500081F480916C0218169CF3442381F08091DE
:102860006D0290916E02892B09F05AC01092660297
:1028700008958F3C49F447FFF0CF10926B0280918E
:102880006C028111ECCFE0CF803D19F41416ACF34B
:10289000E4CF90916D02893D29F41916F4F6109257
:1028A0006D02DBCF8A3D19F497FFD7CFF8CF909117
:1028B0006E028B3D29F497FFD0CF10926E02CDCFE0
:1028C0008C3D19F41916CCF3C8CF9FE2980F9830BD
:1028D00090F4815D990B21E030E0B90102C0660FF0
:1028E000771F8A95E2F7CB01809590916A02892340
:1028F00080936A02B2CF8D3D31F4809168028E7F61
:1029000080936802AACF8E3D21F4809168028D7F6A
:10291000F7CF8F3D09F0A1CF809168028B7FF0CF78
:1029200008950E94CA1A9C0190916B0280916C02DA
:10293000982B21F0309365022093640290916D02F0
:1029400080916E02982B21F03093630220936202F3
:1029500089E692E00E940019089586E0E9E6F2E037
:10296000DF011D928A95E9F71092670210926602C4
:10297000109268020895FC01828181110EC083814A
:1029800081110BC08481811108C091E08581811182
:1029900001C090E0892F8170089581E0FCCFA6E00E
:1029A000B0E0E5EDF4E10C94022286E0E9E6F2E025
:1029B000DE01119601900D928A95E1F710926B025B
:1029C00010926C0210926D0210926E028B819C81AB
:1029D000892B89F080916402909165020E94E21A2D
:1029E000AC01909167029923C9F180910801841785
:1029F000150608F440C08D819E81892B91F080914D
:102A00006202909163020E94E21AAC019091660208
:102A1000992309F471C0809104018417150608F404
:102A200079C0BE016F5F7F4F89E692E00E941A1A5B
:102A3000811105C089E692E00E94BB1481110E94B9
:102A4000911486E0FE013196A9E6B2E001900D9264
:102A50008A95E1F72696E3E00C941E222091090165
:102A60008AE0289F900111242417350720F69F5FE4
:102A70009093670202C09F3FD1F71B81112359F049
:102A80000E9447139FEF11160CF491E0899F802D4F
:102A9000112480936B021C81112359F00E9447136B
:102AA0009FEF11160CF491E0899F802D11248093E3
:102AB0006C0230916B02332309F49DCF20916C029C
:102AC000222309F498CF45EB3403C0011124992344
:102AD00059F090936B0245EB2403900111243323AA
:102AE00039F030936C0287CF81E080936B02F3CF93
:102AF00081E080936C027FCF209105018AE0289FBE
:102B0000900111242417350708F08BCF9F5F909315
:102B1000660202C09F3FD1F71D81112359F00E9428
:102B200085139FEF11160CF491E0899F802D1124DD
:102B300080936D021E81112359F00E9485139FEF2F
:102B400011160CF491E0899F802D112480936E0260
:102B500030916D02332309F464CF20916E02222359
:102B600009F45FCF45EB3403C0011124992359F0D8
:102B700090936D0245EB240390011124332339F027
:102B800030936E024ECF81E080936D02F3CF81E0EF
:102B900080936E0246CFCF93DF93EC01FB018581DA
:102BA000882309F4D2C09E0130572332310508F042
:102BB000B2C00E94F60E90939E0280939D02FE0189
:102BC000E150F047E232F10520F4E056FD4D0C945F
:102BD000ED2180919D02816080939D0293C0809140
:102BE0009E02886080939E028DC080919D028260CB
:102BF000F3CF80919D028460EFCF80919D02886029
:102C0000EBCF80919E028160EDCF80919E02826029
:102C1000E9CF80919D028061DFCF80919D0280622B
:102C2000DBCF80919D028064D7CF0E944D098091B7
:102C30009D028068D1CF80919D028C60CDCF809124
:102C40009E028360CFCF80919D028E7FC5CF809101
:102C50009E02877FC7CF80919D028D7FBDCF8091DF
:102C60009D028B7FB9CF80919D02877FB5CF8091E8
:102C70009E028E7FB7CF80919E028D7FB3CF8091D1
:102C80009D028F7EA9CF80919D028F7DA5CF8091DF
:102C90009D028F7BA1CF0E944D0980919D028F776D
:102CA0009BCF80919D02837F97CF80919E028C7FE6
:102CB00099CF80919D0282FB992790F921E092277C
:102CC00090FB82F990FB83F987CF80919E02982F29
:102CD000909591708E7F892B90FB81F983CF909195
:102CE0009D02892F8F7B96FF806476CF0E944D09CD
:102CF00090919D02892F97FB87F980586DCF81E0D5
:102D00000E94820F80919D0290919E020E94FB0E74
:102D10000E944D0980E0DF91CF91089580E0F0CFCF
:102D200090919D02892F8F7E94FF806155CF909165
:102D30009D02892F8E7F90FF81604ECF90919E02E1
:102D4000892F877F93FF88604DCF81E0E4CFCF93B9
:102D5000DF93EB0186319C4711F50E94E00D9D81C8
:102D6000992399F08A7A91E009F490E090936F02A8
:102D7000811109C089E20E94B80D0E94390E80E0DD
:102D8000DF91CF91089585E3F6CF80916F02811195
:102D900004C089E20E94C00DF0CF85E3FBCF81E043
:102DA000EFCF0F931F93CF93DF93C42FD22FFC014C
:102DB00085818823C9F0409372020E94CA1A9093B9
:102DC00071028093700280E28C0F883040F4C770EB
:102DD00081E001C0880FCA95EAF70E94F906DF91E9
:102DE000CF911F910F91089510917202141332C068
:102DF00080917002909171020E94E21A883C9105C4
:102E000048F5C0E2CD0F1D17B9F080E2810F883080
:102E100040F4177081E001C0880F1A95EAF70E940C
:102E20000007C83048F481E09D2F977001C0880FDB
:102E30009A95EAF70E94F906802F0E94F006C830A2
:102E400070F6D77081E001C0880FDA95EAF70E942A
:102E50000007C5CF80E28C0F883008F6C77081E08C
:102E600001C0880FCA95EAF7F2CF0F93DB018851B2
:102E70009C4787309105A0F5FC01EE53FD4D0C9465
:102E8000ED2106E221EE41EE6AE17CE7CD010E94F0
:102E9000D11680E00F91089507E225EE45EE6BE133
:102EA0007CE7F4CF06E221EE40EE68E17CE7EECF6E
:102EB00007E225EE44EE69E17CE7E8CF06E221EE89
:102EC00042EE6CE17CE7E2CF07E225EE46EE6DE1F3
:102ED0007CE7DCCF08E221E045EE6EE17CE7D6CF6F
:102EE00015968C91882319F010927202D3CF81E04D
:102EF000D1CF1092B9008CE08093B8000895B0E073
:102F0000A0E0E5E8F7E10C94FA21B82EEB010E946D
:102F1000CA1A6C01EE24E394F12CC431D10560F09F
:102F200025E0E22EF12CCF3FDC0731F0CE0164E149
:102F300070E00E94C5217B0184EAA82E94E8992EB6
:102F40001092BC00A092BC000E94CA1A8C01809111
:102F5000BC0087FF0DC08091B900887F8830F9F0F0
:102F60008091B900887F8031D1F00FEF1FEF08C04A
:102F7000C8010E94E21AE816F90648F70EEF1FEFA3
:102F8000CF3FDC07E9F2C6010E94E21AC817D90751
:102F9000B8F6C801CDB7DEB7EBE00C941622B092BC
:102FA000BB009092BC000E94CA1A8C018091BC00A8
:102FB00087FF0AC08091B900887F883111F0803482
:102FC000A1F610E000E0E5CFC8010E94E21AE81681
:102FD000F90660F7D3CF0F931F93CF93DF93EB01E5
:102FE0008093BB0084E88093BC000E94CA1A8C01C5
:102FF0008091BC0087FF11C02091B900287F81E03B
:1030000090E0283211F490E080E09195819591094B
:10301000DF91CF911F910F910895CF3FDC0741F3CE
:10302000C8010E94E21AC817D90710F78EEF9FEF68
:10303000EFCF0F931F93CF93DF93EC0184EC80933A
:10304000BC000E94CA1A8C018091BC0087FF08C096
:103050008091BB0090E0DF91CF911F910F91089577
:10306000CF3FDC0789F3C8010E94E21AC817D907CD
:1030700058F78EEF9FEFEFCF0F931F93CF93DF9310
:10308000EC0184E88093BC000E94CA1A8C018091F4
:10309000BC0087FF08C08091BB0090E0DF91CF911A
:1030A0001F910F910895CF3FDC0789F3C8010E945B
:1030B000E21AC817D90758F78EEF9FEFEFCFB0E0AD
:1030C000A0E0E5E6F8E10C94FD21C62F6A01790144
:1030D000B8010E947F1797FD0CC0B8018C2F0E9489
:1030E000EB17E601EC0CFD1CCE15DF0511F097FF88
:1030F00008C024E92093BC00CDB7DEB7E8E00C940B
:103100001922B80189910E94EB17EECFB0E0A0E040
:10311000ECE8F8E10C94FD21F82EE62EEA016901B5
:10312000B8010E947F1797FD15C0B8018E2D0E942F
:10313000EB1797FD0FC0B8018F2D81600E947F179C
:10314000F12CE12C21E0C21AD108EC14FD04E0F4CA
:1031500097FF0DC024E92093BC001816190614F43B
:1031600090E080E0CDB7DEB7E8E00C941922C8010A
:103170000E94191897FD04C0FE01EE0DFF1D80830B
:103180002FEFE21AF20AE1CF97FDE4CFC8010E94C7
:103190003C1897FDDFCFCC0DDD1D8883DBCF9093EE
:1031A0008701809386010895909378028093770237
:1031B0000895E0917702F0917802309729F001901C
:1031C000F081E02D0995089580E00895E09177025F
:1031D000F0917802309799F020911201222359F052
:1031E00020919D0227FF07C0DC012C9111962C93A2
:1031F000119726E02C930280F381E02D0995089524
:10320000E0917702F0917802309739F022E0DC010A
:103210002C930480F581E02D09950895A3E0B0E09A
:10322000E4E1F9E10C9403222091750230917602D9
:1032300028173907A1F09093760280937502E091E8
:103240007702F0917802309751F023E029839B8335
:103250008A830680F781E02DCE0101960995239699
:10326000E2E00C941F22A3E0B0E0E9E3F9E10C9462
:103270000322209173023091740228173907A1F0BC
:103280009093740280937302E0917702F091780238
:10329000309751F024E029839B838A830680F7814D
:1032A000E02DCE01019609952396E2E00C941F22B1
:1032B000FC01329680911201882321F080919D02B9
:1032C0009EE187FF96E080E0915008F408952191F7
:1032D0002223D1F38F5FF8CF662301F120911201F1
:1032E0002223F1F020919D0227FF1AC0462F469518
:1032F000469546954E3190F4677021E030E002C06B
:10330000220F331F6A95E2F7840F911DFC01828121
:1033100090E02823392381E0232B69F480E008958D
:10332000FC01329608962191261721F0E817F9073B
:10333000D1F7F4CF81E008959C01FC0132969FEF14
:1033400080E04191461751F09F3F19F4411101C0AF
:10335000982F8F5F8630A9F79F3F09F40895290FB2
:10336000311D97FD3A95F90162830895FC0132966B
:1033700008962191261303C0DF0111971C92E817CC
:10338000F907B9F70895E62FE695E695E695EE314B
:1033900068F4E80FF92FF11D677021E030E001C0FB
:1033A000220F6A95EAF78281822B82830895E62FA5
:1033B000E695E695E695EE3170F4E80FF92FF11DEC
:1033C000677021E030E001C0220F6A95EAF720958E
:1033D000828128232283089520911201222339F02B
:1033E00020919D0227FF03C00E94C31908950E94E7
:1033F0009C19089520911201222339F020919D02F9
:1034000027FF03C00E94D71908950E94B619089596
:10341000FC01329680911201882351F080919D0227
:1034200087FF06C08EE1DF011D928A95E9F70895B6
:1034300086E0F9CF46E050E00E942A2221E0892B65
:1034400009F420E0822F089508950E94241A089517
:10345000811106C081E0809379020E94251A0895A7
:1034600082E0F9CF83E0809379020E94251A0895C3
:103470000E94281A089581E0809379020E94251AFB
:1034800008950E943B1A0895089508950E94451AD0
:103490000895089508950E94441A0895CF930E94B4
:1034A000491A0E94D9120E944A1AC0E08C2F0E9429
:1034B000BB12892B31F4CF5FC630C1F780E0CF91CA
:1034C000089581E0FCCF85B7806885BF85B78068A7
:1034D00085BF08951F921FB61F9211248F939F934B
:1034E000AF93BF9380917A02811113C08091B7028C
:1034F0009091B802A091B902B091BA024196A11D73
:10350000B11D8093B7029093B802A093B902B09313
:10351000BA02BF91AF919F918F911F901FBE1F90D4
:1035200018958091BF02843031F10E949F0510925E
:103530007A0288E190E020E40FB6F894A895809391
:1035400060000FBE2093600083B7817F846083BFDB
:1035500083B7816083BF7894889583B78E7F83BF5C
:103560000FB6F894A8958091600088618093600000
:10357000109260000FBE08950E944D090E94A4059C
:10358000089582E084BD93E095BD9AEF97BD809346
:103590006E0008952FB7F8948091B7029091B80209
:1035A000A091B902B091BA022FBF08952FB7F89435
:1035B0006091B7027091B8028091B9029091BA02FD
:1035C0002FBF08959C014FB7F8948091B702909156
:1035D000B802A091B902B091BA024FBF821B930BFF
:1035E000089578941F921FB61F9211248F939F9372
:1035F000AF93BF938091B7029091B802A091B902A6
:10360000B091BA020196A11DB11D8093B7029093AB
:10361000B802A093B902B093BA02BF91AF919F9143
:103620008F911F901FBE1F90189587E797E7909383
:1036300001088093000888E19AE00FB6F894A895F5
:10364000809360000FBE90936000FFCF88E19AE006
:103650000FB6F894A895809360000FBE9093600019
:10366000FFCF80919B0208959B01BA019091BF0208
:103670009430E9F48F708093E9009FEF8091E80027
:10368000915085FD06C085ED8A95F1F700009111F6
:10369000F5CF8091E80085FF0AC050E040E0C90105
:1036A0000E943E1D8091E8008E778093E800089587
:1036B00043E050E0BC0182E00E94341B089546E0E4
:1036C00050E0BC0182E00E94341B0895CF93DF9349
:1036D000EC0180911201811111C048E050E0BE015F
:1036E00081E00E94341B80E2FE01ABE7B2E0019072
:1036F0000D928A95E1F7DF91CF91089580919D0217
:1037000087FF05C040E282E050E0BE01EACF48E01A
:1037100081E0FACF8091BE02811109C00E94CE1EC5
:103720000E942B1F8091E20084608093E200089544
:103730001092BE0208950E943B1A08956091BB0248
:1037400081E0611101C080E00E94321A08959091D9
:10375000BF0281E0943009F080E06091BB020E94DA
:10376000381A089542E061EC81E00E944A1E42E26C
:1037700061EC82E00E944A1E9091BF0281E0943089
:1037800009F080E06091BB020E94281A08958091A0
:10379000C102833009F461C030F48130D1F182304C
:1037A00009F49EC008958A3009F48AC08B3009F468
:1037B0006FC0893009F050C08091C002813209F099
:1037C0004BC08091C4029091C502029708F044C09A
:1037D0008091E800877F8093E8008091E80082FF75
:1037E00037C09091F3008091F200029731F48091FC
:1037F000F100813011F0863021F48091F100809346
:103800009B028091E8008B778093E8000E947E1EE7
:1038100023C08091C002813AF9F48091E800877F4B
:103820008093E8008091C4029091C502892B61F4D5
:1038300060E28BE792E070E00E948D1D8091E800CD
:103840008B778093E800089560E090E080E0F3CF0C
:103850008091BF028111C1CF08958091C002813A49
:10386000D9F78091C4029091C502892BA9F7809164
:10387000E800877F8093E8008091E80080FFFCCF1C
:10388000809112018093F1008091E8008E77BCCF87
:103890008091C002813201F78091C4029091C502EB
:1038A000892BD1F68091E800877F8093E8000E9401
:1038B0007E1E8091C202809312010E944D090895DC
:1038C0008091C002813241F68091E800877F809329
:1038D000E8000E947E1E8091C30280939C0208959E
:1038E0008091C002813A09F0B7CF8091E800877FCC
:1038F0008093E8008091E80080FFFCCF80919C02DB
:10390000C1CF84B7877F84BF0FB6F894A895809104
:103910006000886180936000109260000FBE80E8B4
:1039200090E00FB6F89480936100909361000FBE11
:103930000E94411A08950E94CE1E0E942B1FE2EEA3
:10394000F0E080818460808378940E94AA210895A9
:103950008AE091E00E94D41808958091BF028530DA
:1039600031F48091BF02853019F00E94BC1A08958D
:103970000E94911A8091BD02882399F30E944E1AE9
:10398000882379F30E94281D0E944D09EACF0895EB
:103990009A014091C6025091C7020E94D01C08951E
:1039A000492F55274330510519F168F4413051052D
:1039B00009F444C04230510509F445C090E080E06C
:1039C00050E040E025C04132510549F142325105F5
:1039D000A9F780E490E04BE754E061157105C1F070
:1039E00086EB90E045EC53E06130710589F0E6CF5D
:1039F00099278130910581F0009729F00297F1F61F
:103A0000ECE4F3E002C0E4E7F3E0849190E0AF017E
:103A1000F901518340830895E0E6F3E0F6CF89E0B1
:103A200090E04AE853E06115710591F389E090E078
:103A300043EA53E06130710559F3C0CF82E190E071
:103A400043EB53E0E5CF8BE390E048E753E0E0CF72
:103A500080E189BD82E189BD09B400FEFDCF80917E
:103A6000D8008F7D8093D8008091E00082608093A1
:103A7000E0008091E00081FDFCCF0895AF92BF92FD
:103A8000CF92DF92FF920F931F93CF93DF936C013E
:103A9000EB018A010E949D1EF82E811123C00115A1
:103AA000110539F0F80180819181C81BD90BC80E2E
:103AB000D91EB12CA12C2097A9F08091E80085FD9A
:103AC00022C08091E8008E778093E80001151105EF
:103AD000A1F0F80180819181A80EB91EB182A08267
:103AE00085E0F82E8F2DDF91CF911F910F91FF90E0
:103AF000DF90CF90BF90AF9008950E949D1E8823C5
:103B0000D1F2F82EEFCFF60181916F018093F10091
:103B10002197FFEFAF1ABF0ACECFFC018091C602FA
:103B20009091C70286179707A0F06115710529F4D7
:103B30009091E8009E779093E80090E06115710500
:103B400051F4911108C08091E80082FF34C080E0F8
:103B50000895BC01F2CF8091BF028823C1F1853066
:103B6000C1F18091E80083FD30C08091E80082FDC2
:103B7000EACF8091E80080FFE1CF8091F3002091AF
:103B8000F200382F6115710519F02830310558F011
:103B900091E02830310509F090E02091E8002E777F
:103BA0002093E800CBCF81918093F100615071099F
:103BB0002F5F3F4FE7CF8091BF02882341F08530D0
:103BC00041F08091E80083FFBECF81E0089582E05C
:103BD000089583E00895FC018091C6029091C70288
:103BE00086179707A0F06115710529F48091E80008
:103BF0008E778093E80090E06115710551F4911182
:103C000008C08091E80082FF35C080E00895BC01C3
:103C1000F2CF8091BF028823C9F18530C9F180912C
:103C2000E80083FD31C08091E80082FDEACF8091F9
:103C3000E80080FFE1CF8091F3002091F200382F5F
:103C40006115710519F02830310558F091E02830E0
:103C5000310509F090E08091E8008E778093E800CC
:103C6000CBCF84918093F1003196615071092F5F21
:103C70003F4FE6CF8091BF02882341F0853041F06D
:103C80008091E80083FFBDCF81E0089582E0089530
:103C900083E00895982F973028F08F708093E90083
:103CA00081E008959093E900242F762F50E0981733
:103CB00031F07091EC002091ED005091F00021FD69
:103CC00002C09F5FE8CF3091EB003E7F3093EB0066
:103CD0003091ED003D7F3093ED003091EB0031608D
:103CE0003093EB007093EC002093ED005093F000C4
:103CF0002091EE0027FDE5CF80E008958091C0027D
:103D000087FF13C08091E80082FF06C08091E80021
:103D10008B778093E80004C08091BF028111F2CFBD
:103D200008958091BF028823D9F38091E80080FF35
:103D3000F8CF8091E8008E77ECCF2091E4003091AD
:103D4000E50095E6A9012091EC00822F817020FF0B
:103D500006C08091E80080FF06C080E008952091B1
:103D6000E80022FD1AC08091BF02882389F08530C7
:103D700089F08091EB0085FD0FC02091E400309127
:103D8000E50042175307F9F29150E1F684E00895F7
:103D900082E0089583E0089581E008950E943D1F28
:103DA0000E94451FE0EEF0E0808181608083E8EDB5
:103DB000F0E080818F77808319BCA7EDB0E08C9113
:103DC0008E7F8C9380818F7E80831092BE020895B7
:103DD0000F931F93CF93DF930E943D1F0E94451FB7
:103DE000C8EDD0E088818F77888388818068888358
:103DF00088818F7D888319BC1092BF021092BB020C
:103E00001092BD021092BC0200EE10E0F801808119
:103E10008B7F808388818160888342E060E080E0DE
:103E20000E944A1EE1EEF0E080818E7F8083E2EE08
:103E3000F0E0808181608083808188608083F801E8
:103E400080818E7F8083888180618883DF91CF919C
:103E50001F910F910895E8EDF0E080818F7E8083BF
:103E6000E7EDF0E080818160808384E082BF81E0C3
:103E70008093BE020E94E81E0895E8EDF0E0808184
:103E80008E7F80831092E20008951092DA001092E3
:103E9000E10008951F920F920FB60F9211242F93F5
:103EA0003F934F935F936F937F938F939F93AF93C2
:103EB000BF93EF93FF938091E10082FF0BC080914D
:103EC000E20082FF07C08091E1008B7F8093E100D8
:103ED0000E94A9218091DA0080FF19C08091D8004A
:103EE00080FF15C08091DA008E7F8093DA00809188
:103EF000D90080FF96C080E189BD82E189BD09B407
:103F000000FEFDCF81E08093BF020E948A1B80915A
:103F1000E10080FF19C08091E20080FF15C0809110
:103F2000E2008E7F8093E2008091E20080618093C6
:103F3000E2008091D80080628093D80019BC85E0AF
:103F40008093BF020E949E1B8091E10084FF2BC0E2
:103F50008091E20084FF27C080E189BD82E189BDB4
:103F600089B5982F917080FFFBCF8091D8008F7D0D
:103F70008093D8008091E1008F7E8093E100809152
:103F8000E2008F7E8093E2008091E2008160809366
:103F9000E2008091BB02882309F449C084E0809349
:103FA000BF020E94A71B8091E10083FF29C080917E
:103FB000E20083FF25C08091E100877F8093E100CC
:103FC00082E08093BF021092BB028091E1008E7F5D
:103FD0008093E1008091E2008E7F8093E2008091E7
:103FE000E20080618093E20042E060E080E00E94B5
:103FF0004A1E8091F00088608093F0000E949B1B15
:10400000FF91EF91BF91AF919F918F917F916F91B0
:104010005F914F913F912F910F900FBE0F901F9086
:10402000189519BC1092BF020E94981B70CF809106
:10403000E30087FD93E09093BF02B3CF1F920F92EE
:104040000FB60F9211242F933F934F935F936F936B
:104050007F938F939F93AF93BF93CF93DF93EF9310
:10406000FF93D091E900DF708091EC00C82FC17000
:1040700080FDC0E81092E9008091F000877F809376
:10408000F00078940E9462201092E9008091F00084
:1040900088608093F000CD2BCF70C093E900FF9132
:1040A000EF91DF91CF91BF91AF919F918F917F91D0
:1040B0006F915F914F913F912F910F900FBE0F9095
:1040C0001F901895AAE2B0E0E8E6F0E20C94022214
:1040D00080EC92E02091F100FC012193CF01F2E00D
:1040E000883C9F07B9F70E94C71B8091E80083FFB7
:1040F0001EC18091C0029091C1029A3008F017C190
:10410000E92FF0E0E753FD4D0C94ED21803899F054
:10411000823809F00CC18091C4028F70873008F09A
:1041200006C18093E9008091EB0085FB882780F928
:104130001092E90006C08091BC029091BD029111DD
:1041400082609091E800977F9093E8008093F1005F
:104150001092F1008091E8008E77E5C0882309F481
:10416000D3C0823009F0E3C08091C2028111D6C071
:104170008091C4028F702FEF280F263008F0D7C02F
:104180008093E9002091EB0020FFC8C0933031F408
:104190008091EB0080628093EB00C0C09091EB00B7
:1041A00090619093EB0021E030E001C0220F8A95EE
:1041B000EAF72093EA001092EA008091EB00886011
:1041C000EACF8111B4C01091C2021F778091E30041
:1041D0008078812B8093E3008091E800877F809333
:1041E000E8000E947E1E8091E80080FFFCCF809155
:1041F000E30080688093E30082E0111183E0809304
:10420000BF0295C08058823008F091C08091C202F0
:104210009091C3028C3D23E09207A1F583E08A834D
:104220008AE289834FB7F894DE01139620E03EE0DE
:1042300051E2E32FF0E050935700E49120FF03C0D8
:10424000E295EF703F5FEF708E2F90E0EA30C0F0A4
:10425000C7968D939D932F5F243159F74FBF80915F
:10426000E800877F8093E8006AE270E0CE01019663
:104270000E948D1D8091E8008B778093E80057C0E5
:10428000C096E7CF6091C4027091C502AE014F5F46
:104290005F4F0E94C81CBC01892B09F448C0909153
:1042A000E800977F9093E80089819A810E94EB1D36
:1042B000E1CF8038E1F58091E800877F8093E800C6
:1042C0008091BB028093F10045CF811130C0909165
:1042D000C202923060F58091E800877F8093E80009
:1042E0009093BB020E947E1E8091BB02882311F036
:1042F00084E005C08091E30087FDFACF81E08093E0
:10430000BF020E94B21B13C08091C202813079F4B7
:1043100081E0933009F080E08093BD021092E900C3
:104320008091E800877F8093E8000E947E1E809144
:10433000E80083FF0AC08091E800877F8093E8004F
:104340008091EB0080628093EB00AA96E3E00C94EE
:104350001E220895CF938091BF028823A1F0C091BF
:10436000E900CF709091EC00892F817090FD80E87A
:10437000C82B1092E9008091E80083FD0E94622022
:10438000CF70C093E900CF910895AA1BBB1B51E1E8
:1043900007C0AA1FBB1FA617B70710F0A61BB70BB5
:1043A000881F991F5A95A9F780959095BC01CD015A
:1043B000089597FB072E16F4009407D077FD09D0D7
:1043C0000E94C52107FC05D03EF4909581959F4F32
:1043D0000895709561957F4F0895EE0FFF1F05902A
:1043E000F491E02D09942F923F924F925F926F9239
:1043F0007F928F929F92AF92BF92CF92DF92EF9275
:10440000FF920F931F93CF93DF93CDB7DEB7CA1BF5
:10441000DB0B0FB6F894DEBF0FBECDBF09942A8820
:10442000398848885F846E847D848C849B84AA84C8
:10443000B984C884DF80EE80FD800C811B81AA8155
:10444000B981CE0FD11D0FB6F894DEBF0FBECDBF20
:10445000ED010895FB01DC0104C08D9101908019EC
:1044600021F441505040C8F7881B990B0895FB0177
:10447000DC0102C001900D9241505040D8F70895E0
:10448000F999FECF92BD81BDF89A992780B508951C
:10449000A8E1B0E042E050E00C948422DC01A40FDB
:1044A000B51F4150504048F0CB01840F951F2E910D
:1044B0000E945F2241505040D0F70895262FF9996D
:1044C000FECF92BD81BDF89A019700B4021639F073
:1044D0001FBA20BD0FB6F894FA9AF99A0FBE089544
:1044E0000396272F0E945F220E945E22252F0E94A2
:1044F0005F22242F0C945F220196272F0E945F22B7
:104500000C945E22DC01CB01FC01F999FECF06C0C0
:10451000F2BDE1BDF89A319600B40D924150504081
:10452000B8F70895F894FFCF460746079607960711
:10453000FB071708750775071C088D089C089C0861
:10454000231697162B16F515F9152F16FD1533168C
:104550003F16091690160D164316111647166F16BC
:1045600015164B1676161B165116591601163716C8
:1045700005163B161F16551665167F168E16EF1577
:1045800027169E165217581741174C175E176417B7
:104590006A178620AE209721AE209721E1200221C4
:0645A0009721592165215D
:1045A6002602280850011E0A1401311B661B5F1BD8
:1045B600581B01E200E900EA00B500B600B700CDDD
:1045C600008301CC008A0192019401210223022476
:1045D600022502260227022A02B300B4006F0070E9
:1045E600009F01CB019F02A002818283E200E900C5
:1045F600EA00B500B600B700CD008301CC008A0101
:104606009201940121022302240225022602270296
:104616002A02B300B4006F0070009F01CB019F0215
:06462600A0028182830066
:00000001FF
